:100000000C943E000C945D010C9451010C9405017C
:100010000C945B000C945B000C945B000C946901E5
:100020000C945B000C945B000C945B000C945B00E4
:100030000C945B000C945B000C945B000C94EE0041
:100040000C945B000C945B000C945B000C945B00C4
:100050000C945B000C945B000C945B000C945B00B4
:100060000C945B000C945B000C945B000C945B00A4
:100070000C9428030C945B000C945B0011241FBEAD
:10008000CFEFD0E1DEBFCDBF11E0A0E0B1E0EAE507
:10009000F1E102C005900D92AC33B107D9F711E040
:1000A000ACE3B1E001C01D92AF35B107E1F70E94AA
:1000B000B3010C94AB080C940000AF92BF92CF92A6
:1000C000DF92EF92FF920F931F93A0E0B0E0BC018C
:1000D000CD010E948C045B016C0122E539E44DE9FD
:1000E0005FE30E9442057B018C0120E030E040E8A4
:1000F0005FE30E94F403882314F461E053C0C80155
:10010000B70120E030E04FE753E40E943E051816A7
:100110000CF044C0C601B50120E030E04AE754E4E9
:100120000E94F8035B016C0126E636E646E654E4DD
:100130000E9442057B018C0120E030E040E85FE353
:100140000E94F40388231CF461E070E023C0C8011E
:10015000B70120E03FEF4FE757E40E943E05181635
:10016000ACF4C601B50120E030E040E251E40E9469
:1001700042050E946004CB01672BB1F02CE530E012
:10018000F9013197F1F70197D9F70EC0C801B7010E
:100190000E946004CB010197F1F706C0C801B701C6
:1001A0000E9460046A95F1F71F910F91FF90EF9004
:1001B000DF90CF90BF90AF900895CF93DF93EC0185
:1001C0001C161D0644F488EE93E00E945D00219702
:1001D0001C161D06C4F3DF91CF9108951F920F9254
:1001E0000FB60F9211248F93F894809140018F5F86
:1001F00080934001109285001092840078948F9132
:100200000F900FBE0F901F9018951F920F920FB670
:100210000F9211242F933F934F935F936F937F938C
:100220008F939F93AF93BF93EF93FF93F894E4E87A
:10023000F0E0608171811182108280E090E00E9484
:100240008C0422EF32ED4DE85EE30E9442050E94ED
:1002500060049B0140E050E060E87EEE86E390E0C1
:100260000E94A50530933F0120933E0180913C01FF
:1002700090913D01019690933D0180933C017894CB
:10028000FF91EF91BF91AF919F918F917F916F916E
:100290005F914F913F912F910F900FBE0F901F9044
:1002A00018951F920F920FB60F921124F89478941C
:1002B0000F900FBE0F901F9018951F920F920FB6C0
:1002C0000F921124F89478940F900FBE0F901F9006
:1002D00018951F920F920FB60F921124F8947894EC
:1002E0000F900FBE0F901F9018958FE781B90E9455
:1002F000750381E084B915B817B818B882E08AB9D7
:100300001BB8EDE3F0E0108280EA8093690087E09B
:100310008CBB84E080831092730010926D00109269
:100320006C0010926B00109268001092800085E0C3
:1003300080938100109289001092880010926400CE
:100340000E94C6028EE291E090935C0180935B0173
:100350008BE090E00E947C028BE090E00E9489029A
:1003600078948FEF08952F923F924F925F926F9201
:100370007F928F929F92AF92BF92CF92DF92EF9235
:10038000FF920F931F93DF93CF93CDB7DEB72797DD
:100390000FB6F894DEBF0FBECDBF10924E018FEFA7
:1003A0008093460180E197E20E945D000E94750102
:1003B00000D080E091E0EDB7FEB7928381830E9488
:1003C000E20500E010E00F900F900F2EFAE25F2E92
:1003D000F02D0F2EF3E4EF2EF1E0FF2EF02D37017C
:1003E0000894611C711C0F2EF5E72F2EF02D882428
:1003F0009924689481F88E0C9F1C0F2EF2E73F2EF3
:10040000F02D0F2EF3E0AF2EBB24F02DAE0CBF1C51
:100410000F2EFBE64F2EF02D0F2EF4E1CF2EF1E044
:10042000DF2EF02D80913C0190913D0180179107C6
:1004300011F100913C0110913D010E94CD02859D7A
:10044000C001112490934201809341011A82F0E38C
:10045000FB8364E06C831F82FE82ED8280913E010B
:1004600090913F0167E6F7016083F3012082F40178
:100470003082F50140820E94CD02859DC001112489
:10048000909342018093410180913C0190913D0104
:1004900020913E0130913F01409141015091420134
:1004A0006DB77EB7685070400FB6F8947EBF0FBE30
:1004B0006DBFEDB7FEB73196D182C0829383828340
:1004C00035832483578346830E94E2058DB79EB708
:1004D00008960FB6F8949EBF0FBE8DBF29813A8152
:1004E0004B815C816D817E818F810E94780384EFD6
:1004F00091E00E94DD0096CF9093C5008093C400E8
:100500001092C00088E08093C1008EE08093C2000A
:1005100008959093CD008093CC0088E18093C9002A
:100520008EE08093CA000895DC01E0ECF0E0808169
:1005300085FFFDCF8C918093C6000895582FDB0175
:10054000442349F0282F392FF90181918D938E2F63
:10055000851B8417D0F308951F93182F8A3019F440
:100560008DE00E94AC02E0ECF0E0808185FFFDCFE1
:100570001093C60080E090E01F910895E0ECF0E059
:1005800080818823ECF78091C600089580E28093F3
:100590007C0082E880937A0008950F931F93DF9385
:1005A000CF9300D00F92CDB7DEB7ECE7F0E08081BB
:1005B000807E8083808187608083BE016F5F7F4FF4
:1005C000EAE7F0E049E750E09E012C5F3F4F808171
:1005D00086FD03C0808180648083808186FDFDCF9D
:1005E000DA018C91DB018D93BD01A217B30779F776
:1005F00020E030E0DE01119601E010E019C0822F0A
:1006000090E0FD01E80FF91F7081AC014F5F5F4F73
:10061000FD01E40FF51F6081671748F4FD01E80F45
:10062000F91F6083FD01E40FF51F7083302F2F5FEA
:10063000223028F3313019F4212F312FF9CF8A815C
:100640000F900F900F90CF91DF911F910F91089510
:100650001F920F920FB60F9211248F939F93EF93D7
:10066000FF93F8949091CE009E3719F410924601B2
:1006700010C09D3721F481E080934E010AC0809123
:100680004601EFE4F1E0E80FF11D90838F5F809366
:1006900046017894FF91EF919F918F910F900FBE3B
:1006A0000F901F901895809146018823C9F0809182
:1006B0004E018130A9F448E451E08FE491E0DC017F
:1006C0002D91FA0121932C912083FC012281FA01C2
:1006D00022830396948383832D5F258381E008958D
:1006E00080E0089588E082B908958CE082B9089589
:1006F000FF920F931F93DF93CF93CDB7DEB72D9764
:100700000FB6F894DEBF0FBECDBF2F833887498761
:100710005A876B877C878D87062FF72E152F88E6E3
:10072000898385E68A838CE68B838FE68C830E949F
:100730007203BE016F5F7F4FA8ECB0E04EEC50E05B
:100740009E012B5F3F4F8C9185FFFDCFFB01819177
:10075000BF01FA01808362177307A9F71123A1F083
:10076000402F202F3F2DB901A8ECB0E02EEC30E057
:100770008C9185FFFDCFFB018191BF01F901808341
:10078000862F841B8117A0F380E78E838D83BE01A3
:100790006B5F7F4FA8ECB0E04EEC50E09E01295F0C
:1007A0003F4F8C9185FFFDCFFB018191BF01FA0185
:1007B000808362177307A9F7E8ECF0E0808185FF7A
:1007C000FDCF8AE090E00E945D000E94750381E009
:1007D0002D960FB6F894DEBF0FBECDBFCF91DF913F
:1007E0001F910F91FF900895D4D008F481E00895EF
:1007F0000CD00AC102D140F0F9D030F021F45F3FB3
:1008000019F0EBC0511134C1EEC00FD198F3992308
:10081000C9F35523B1F3951B550BBB27AA276217C4
:100820007307840738F09F5F5F4F220F331F441F09
:10083000AA1FA9F333D00E2E3AF0E0E830D0915041
:100840005040E695001CCAF729D0FE2F27D0660F2E
:10085000771F881FBB1F261737074807AB07B0E86D
:1008600009F0BB0B802DBF01FF2793585F4F2AF083
:100870009E3F510568F0B1C0FBC05F3FECF3983E6E
:10088000DCF3869577956795B795F7959F5FC9F7E0
:10089000880F911D9695879597F90895E1E0660F69
:1008A000771F881FBB1F621773078407BA0720F0E2
:1008B000621B730B840BBA0BEE1F88F7E09508954B
:1008C000BCD088F09F5790F0B92F9927B751A0F06E
:1008D000D1F0660F771F881F991F1AF0BA95C9F7D4
:1008E00012C0B13081F0C3D0B1E00895C0C0672F0D
:1008F000782F8827B85F39F0B93FCCF38695779584
:100900006795B395D9F73EF490958095709561956C
:100910007F4F8F4F9F4F0895E89409C097FB3EF497
:1009200090958095709561957F4F8F4F9F4F99233C
:10093000A9F0F92F96E9BB279395F69587957795BA
:100940006795B795F111F8CFFAF4BB0F11F460FF7A
:100950001BC06F5F7F4F8F4F9F4F16C0882311F0D2
:1009600096E911C0772321F09EE8872F762F05C0E6
:10097000662371F096E8862F70E060E02AF09A9581
:10098000660F771F881FDAF7880F9695879597F976
:100990000895990F0008550FAA0BE0E8FEEF161610
:1009A0001706E807F907C0F012161306E407F50763
:1009B00098F0621B730B840B950B39F40A2661F0D7
:1009C000232B242B252B21F408950A2609F4A1407A
:1009D000A6958FEF811D811D089597F99F6780E887
:1009E00070E060E008959FEF80EC089500240A9481
:1009F0001616170618060906089500240A941216FA
:100A00001306140605060895092E0394000C11F42C
:100A1000882352F0BB0F40F4BF2B11F460FF04C0D9
:100A20006F5F7F4F8F4F9F4F089557FD9058440F32
:100A3000551F59F05F3F71F04795880F97FB991F3D
:100A400061F09F3F79F087950895121613061406FA
:100A5000551FF2CF4695F1DF08C016161706180687
:100A6000991FF1CF86957105610508940895E89462
:100A7000BB2766277727CB0197F908958ADF08F40B
:100A80008FEF08950BD0C0CFB1DF28F0B6DF18F09C
:100A9000952309F0A2CFA7CF1124EACFC6DFA0F398
:100AA000959FD1F3950F50E0551F629FF001729F03
:100AB000BB27F00DB11D639FAA27F00DB11DAA1F22
:100AC000649F6627B00DA11D661F829F2227B00D6F
:100AD000A11D621F739FB00DA11D621F839FA00DFA
:100AE000611D221F749F3327A00D611D231F849F4A
:100AF000600D211D822F762F6A2F11249F575040A1
:100B00008AF0E1F088234AF0EE0FFF1FBB1F661F3B
:100B1000771F881F91505040A9F79E3F510570F0F4
:100B20005CCFA6CF5F3FECF3983EDCF386957795DC
:100B30006795B795F795E7959F5FC1F7FE2B880FEF
:100B4000911D9695879597F9089597FB092E05268F
:100B50000ED057FD04D014D00AD0001C38F45095A4
:100B60004095309521953F4F4F4F5F4F0895F6F7D1
:100B700090958095709561957F4F8F4F9F4F089509
:100B8000A1E21A2EAA1BBB1BFD010DC0AA1FBB1F91
:100B9000EE1FFF1FA217B307E407F50720F0A21B03
:100BA000B30BE40BF50B661F771F881F991F1A9470
:100BB00069F760957095809590959B01AC01BD019A
:100BC000CF010895A0E0B0E0E8EEF5E00C948408D1
:100BD000FE0135966191719180915B0190915C016C
:100BE000AF010E94F7052096E2E00C94A008ABE06C
:100BF000B0E0EDEFF5E00C9474083C012B015A01D4
:100C0000FC0117821682838181FD03C06FEF7FEFA5
:100C1000C6C19AE0892E1E010894211C311CF301E3
:100C20002381F20123FD859123FF81912F018823E8
:100C300009F4B2C1853239F423FD859123FF8191F6
:100C40002F01853229F490E0B3010E94EA07E7CF33
:100C5000982FFF24EE249924FFE1FF15D0F09B325A
:100C600069F09C3228F4903259F0933291F40EC01E
:100C70009D3249F0903369F441E024C052E0F52AF6
:100C800084E0F82A28C098E0F92A25C0E0E1FE2A8D
:100C900022C0F7FC29C0892F80538A3070F4F6FEF9
:100CA00005C0989C902C1124980E15C0E89CE02C4F
:100CB0001124E80EF0E2FF2A0EC09E3229F4F6FC61
:100CC0006BC140E4F42A07C09C3619F450E8F52AB9
:100CD00002C0983649F4F20123FD959123FF9191CA
:100CE0002F01992309F0B8CF892F8554833018F04C
:100CF0008052833038F444E050E0A40EB51E5FE328
:100D000059830FC0933631F0933779F0933509F05A
:100D100056C020C0F5018081898342E050E0A40ED6
:100D2000B51E610101E010E012C0F501C080D18064
:100D3000F6FC03C06FEF7FEF02C0692D70E042E068
:100D400050E0A40EB51EC6010E94DF078C015FE7CC
:100D5000F52214C0F501C080D180F6FC03C06FEF0E
:100D60007FEF02C0692D70E042E050E0A40EB51E96
:100D7000C6010E94D4078C0150E8F52AF3FE07C093
:100D80001AC080E290E0B3010E94EA07EA948E2D37
:100D900090E008171907A8F30EC0F601F7FC85913B
:100DA000F7FE81916F0190E0B3010E94EA07E11024
:100DB000EA94015010400115110579F7EAC0943604
:100DC00011F0993669F5F7FE08C0F50120813181EF
:100DD0004281538184E090E00AC0F50180819181D5
:100DE0009C01442737FD4095542F82E090E0A80EE7
:100DF000B91E9FE6F92257FF09C0509540953095DE
:100E000021953F4F4F4F5F4FE0E8FE2ACA01B901DD
:100E1000A1012AE030E00E941608D82ED21840C066
:100E2000953729F41F2D1F7E2AE030E01DC01F2DAD
:100E3000197F9F3661F0903720F4983509F0ACC0E7
:100E40000FC0903739F0983709F0A6C004C028E0E9
:100E500030E00AC0106114FD146020E130E004C0ED
:100E600014FD166020E132E017FF08C0F501608133
:100E700071818281938144E050E008C0F501808156
:100E80009181BC0180E090E042E050E0A40EB51EEC
:100E9000A1010E941608D82ED2188FE7F82EF12251
:100EA000F6FE0BC05EEFF522D91438F4F4FE07C04D
:100EB000F2FC05C08FEEF82202C01D2D01C0192DD5
:100EC000F4FE0DC0FE01ED0DF11D8081803319F49B
:100ED00099EEF92208C01F5FF2FE05C003C08F2DF6
:100EE000867809F01F5F0F2DF3FC14C0F0FE0FC0D1
:100EF0001E1510F09D2C0BC09D2C9E0C911A1E2DC2
:100F000006C080E290E0B3010E94EA071F5F1E1551
:100F1000C0F304C01E1510F4E11A01C0EE2404FF52
:100F20000FC080E390E0B3010E94EA0702FF1DC0FA
:100F300001FD03C088E790E00EC088E590E00BC09B
:100F4000802F867891F001FF02C08BE201C080E221
:100F5000F7FC8DE290E0B3010E94EA0706C080E34F
:100F600090E0B3010E94EA079A94D914C0F3DA948E
:100F7000F101ED0DF11D808190E0B3010E94EA07BF
:100F8000DD20A9F706C080E290E0B3010E94EA07E5
:100F9000EA94EE20C1F743CEF30166817781CB015D
:100FA0002B96E2E10C949008FC0105906150704092
:100FB0000110D8F7809590958E0F9F1F0895FC0122
:100FC0006150704001900110D8F7809590958E0F78
:100FD0009F1F08950F931F93CF93DF938C01EB0115
:100FE0008B8181FF1BC082FF0DC02E813F818C81D0
:100FF0009D812817390764F4E881F9810193F98309
:10100000E88306C0E885F985802F0995892B31F49E
:101010008E819F8101969F838E8302C00FEF1FEF09
:10102000C801DF91CF911F910F910895FA01AA276E
:10103000283051F1203181F1E8946F936E7F6E5F1B
:101040007F4F8F4F9F4FAF4FB1E03ED0B4E03CD0C9
:10105000670F781F891F9A1FA11D680F791F8A1FAC
:10106000911DA11D6A0F711D811D911DA11D20D013
:1010700009F468943F912AE0269F11243019305DCD
:101080003193DEF6CF010895462F4770405D4193BE
:10109000B3E00FD0C9F7F6CF462F4F70405D4A330B
:1010A00018F0495D31FD4052419302D0A9F7EACFD3
:1010B000B4E0A6959795879577956795BA95C9F702
:1010C00000976105710508959B01AC010A2E0694F5
:1010D0005795479537952795BA95C9F7620F731FAE
:1010E000841F951FA01D08952F923F924F925F92EB
:1010F0006F927F928F929F92AF92BF92CF92DF9228
:10110000EF92FF920F931F93CF93DF93CDB7DEB78C
:10111000CA1BDB0B0FB6F894DEBF0FBECDBF099420
:101120002A88398848885F846E847D848C849B8477
:10113000AA84B984C884DF80EE80FD800C811B8185
:10114000AA81B981CE0FD11D0FB6F894DEBF0FBEB4
:0A115000CDBFED010895F894FFCF24
:10115A005374617274757020436F6D706C65746539
:10116A00640A0D0050756C73206E722025693A204E
:10117A00257520572C202575206D560A0D00000074
:0C118A00000200000000AC0200000000A9
:00000001FF
