:100000000C943E000C94FA000C94EE000C94120137
:100010000C945B000C945B000C945B000C94060148
:100020000C945B000C945B000C945B000C945B00E4
:100030000C945B000C945B000C945B000C94AB0183
:100040000C945B000C945B000C945B000C945B00C4
:100050000C945B000C945B000C945B000C945B00B4
:100060000C945B000C945B000C945B000C945B00A4
:100070000C945B000C945B000C945B0011241FBE7D
:10008000CFEFD0E1DEBFCDBF11E0A0E0B1E0EEE701
:10009000FEE002C005900D92AA36B107D9F711E033
:1000A000AAE6B1E001C01D92A737B107E1F70E94AF
:1000B00021020C943D070C940000AF92BF92CF92A6
:1000C000DF92EF92FF920F931F93A0E0B0E0BC018C
:1000D000CD010E94B0055B016C012BEA3AEA4AEAC5
:1000E0005EE30E9466067B018C0120E030E040E880
:1000F0005FE30E941805882314F461E053C0C8012F
:10010000B70120E030E04FE753E40E946206181682
:100110000CF044C0C601B50120E030E04AE754E4E9
:100120000E941C055B016C0120E030E04AE753E4CB
:100130000E9466067B018C0120E030E040E85FE32E
:100140000E94180588231CF461E070E023C0C801F8
:10015000B70120E03FEF4FE757E40E946206181610
:10016000ACF4C601B50120E030E040E251E40E9469
:1001700066060E948405CB01672BB1F029E130E0CF
:10018000F9013197F1F70197D9F70EC0C801B7010E
:100190000E948405CB010197F1F706C0C801B701A1
:1001A0000E9484056A95F1F71F910F91FF90EF90DF
:1001B000DF90CF90BF90AF900895CF93DF93EC0185
:1001C0001C161D0644F488EE93E00E945D00219702
:1001D0001C161D06C4F3DF91CF9108951F920F9254
:1001E0000FB60F921124F89478940F900FBE0F90D1
:1001F0001F9018951F920F920FB60F921124F8942A
:1002000078940F900FBE0F901F9018951F920F9229
:100210000FB60F921124F89478940F900FBE0F90A0
:100220001F9018951F920F920FB60F921124CF9224
:10023000DF92EF92FF920F931F932F933F934F9371
:100240005F936F937F938F939F93AF93BF93CF935E
:10025000DF93EF93FF93F8942A9B0FC0CCE3D0E099
:1002600005E210E088818470888382E390E00E9438
:100270005D00F801808182FDF5CFE4E8F0E0C08008
:10028000D18011821082B60180E090E00E94B0051A
:100290002FE632E143E85FE30E9466060E94840590
:1002A0007B018C019B0140E050E060E87EEE86E33C
:1002B00090E00E94C90630936D0120936C018091FB
:1002C0006A0190916B01019690936B0180936A0192
:1002D00020916A0130916B0140916C0150916D0148
:1002E0008DB79EB70A970FB6F8949EBF0FBE8DBF0D
:1002F000EDB7FEB7319680E091E091838083338340
:100300002283D582C482F782E682518740870E9489
:1003100086027894EDB7FEB73A960FB6F894FEBF12
:100320000FBEEDBFFF91EF91DF91CF91BF91AF91E4
:100330009F918F917F916F915F914F913F912F91FD
:100340001F910F91FF90EF90DF90CF900F900FBE15
:100350000F901F9018951F920F920FB60F921124B5
:100360002F933F934F935F936F937F938F939F93BD
:10037000AF93BF93EF93FF93F89480916E018F5FDB
:1003800080936E01109285001092840020916E017E
:1003900000D000D0EDB7FEB731968DE291E09183A9
:1003A0008083228313820E94860278940F900F909C
:1003B0000F900F90FF91EF91BF91AF919F918F910F
:1003C0007F916F915F914F913F912F910F900FBE51
:1003D0000F901F9018958FE781B912B881E084B90A
:1003E00015B817B818B882E08AB91BB8EDE3F0E089
:1003F00010821092690087E08CBB84E080831092A9
:10040000730010926D0010926C0010926B001092AD
:1004100068001092800085E080938100109289002E
:1004200010928800109264008CE591E09093740122
:10043000809373018CE090E00E94460278948FEFE5
:1004400008951F93CF93DF93E1E6F0E080E8808387
:1004500083E0808380E197E20E945D000E94EB01CF
:1004600000D088E491E0EDB7FEB7928381830E94CB
:1004700086020F900F90C5E2D0E011E088818127BD
:10048000888384EF91E00E94DD00F8CF9093C5004F
:100490008093C40082E08093C00088E18093C10013
:1004A0008EE08093C2000895DC01E0ECF0E08081F2
:1004B00085FFFDCF8C918093C6000895582FDB01F6
:1004C000442349F0282F392FF90181918D938E2FE4
:1004D000851B8417D0F308951F93182F8A3019F4C1
:1004E0008DE00E946C02E0ECF0E0808185FFFDCFA2
:1004F0001093C60080E090E01F910895E0ECF0E0DA
:1005000080818823ECF78091C6000895A0E0B0E0D8
:10051000ECE8F2E00C941607FE01359661917191BA
:100520008091730190917401AF010E949B0220960B
:10053000E2E00C943207ABE0B0E0E1EAF2E00C94C8
:1005400006073C012B015A01FC01178216828381A8
:1005500081FD03C06FEF7FEFC6C19AE0892E1E01B7
:100560000894211C311CF3012381F20123FD8591A4
:1005700023FF81912F01882309F4B2C1853239F418
:1005800023FD859123FF81912F01853229F490E08D
:10059000B3010E948E04E7CF982FFF24EE24992404
:1005A000FFE1FF15D0F09B3269F09C3228F49032C5
:1005B00059F0933291F40EC09D3249F0903369F4B2
:1005C00041E024C052E0F52A84E0F82A28C098E0EF
:1005D000F92A25C0E0E1FE2A22C0F7FC29C0892FB4
:1005E00080538A3070F4F6FE05C0989C902C11243C
:1005F000980E15C0E89CE02C1124E80EF0E2FF2ACA
:100600000EC09E3229F4F6FC6BC140E4F42A07C008
:100610009C3619F450E8F52A02C0983649F4F201E4
:1006200023FD959123FF91912F01992309F0B8CFD4
:10063000892F8554833018F08052833038F444E099
:1006400050E0A40EB51E5FE359830FC0933631F01E
:10065000933779F0933509F056C020C0F5018081B9
:10066000898342E050E0A40EB51E610101E010E074
:1006700012C0F501C080D180F6FC03C06FEF7FEFA0
:1006800002C0692D70E042E050E0A40EB51EC60124
:100690000E9483048C015FE7F52214C0F501C0803D
:1006A000D180F6FC03C06FEF7FEF02C0692D70E0D0
:1006B00042E050E0A40EB51EC6010E9478048C01F1
:1006C00050E8F52AF3FE07C01AC080E290E0B301BB
:1006D0000E948E04EA948E2D90E008171907A8F363
:1006E0000EC0F601F7FC8591F7FE81916F0190E055
:1006F000B3010E948E04E110EA94015010400115EC
:10070000110579F7EAC0943611F0993669F5F7FECC
:1007100008C0F501208131814281538184E090E05D
:100720000AC0F501808191819C01442737FD4095E5
:10073000542F82E090E0A80EB91E9FE6F92257FFE1
:1007400009C050954095309521953F4F4F4F5F4FD1
:10075000E0E8FE2ACA01B901A1012AE030E00E94C6
:10076000BA04D82ED21840C0953729F41F2D1F7E09
:100770002AE030E01DC01F2D197F9F3661F09037B1
:1007800020F4983509F0ACC00FC0903739F0983795
:1007900009F0A6C004C028E030E00AC0106114FDD2
:1007A000146020E130E004C014FD166020E132E066
:1007B00017FF08C0F501608171818281938144E057
:1007C00050E008C0F50180819181BC0180E090E09B
:1007D00042E050E0A40EB51EA1010E94BA04D82E3A
:1007E000D2188FE7F82EF122F6FE0BC05EEFF5224D
:1007F000D91438F4F4FE07C0F2FC05C08FEEF822DD
:1008000002C01D2D01C0192DF4FE0DC0FE01ED0D1D
:10081000F11D8081803319F499EEF92208C01F5F21
:10082000F2FE05C003C08F2D867809F01F5F0F2DE3
:10083000F3FC14C0F0FE0FC01E1510F09D2C0BC071
:100840009D2C9E0C911A1E2D06C080E290E0B301F3
:100850000E948E041F5F1E15C0F304C01E1510F405
:10086000E11A01C0EE2404FF0FC080E390E0B30161
:100870000E948E0402FF1DC001FD03C088E790E0C6
:100880000EC088E590E00BC0802F867891F001FFC4
:1008900002C08BE201C080E2F7FC8DE290E0B30180
:1008A0000E948E0406C080E390E0B3010E948E0493
:1008B0009A94D914C0F3DA94F101ED0DF11D808101
:1008C00090E0B3010E948E04DD20A9F706C080E20B
:1008D00090E0B3010E948E04EA94EE20C1F743CE6B
:1008E000F30166817781CB012B96E2E10C9422071C
:1008F000FC010590615070400110D8F780959095EB
:100900008E0F9F1F0895FC016150704001900110EF
:10091000D8F7809590958E0F9F1F08950F931F9382
:10092000CF93DF938C01EB018B8181FF1BC082FF92
:100930000DC02E813F818C819D812817390764F479
:10094000E881F9810193F983E88306C0E885F98598
:10095000802F0995892B31F48E819F8101969F8389
:100960008E8302C00FEF1FEFC801DF91CF911F915F
:100970000F910895FA01AA27283051F1203181F111
:10098000E8946F936E7F6E5F7F4F8F4F9F4FAF4F97
:10099000B1E03ED0B4E03CD0670F781F891F9A1FAA
:1009A000A11D680F791F8A1F911DA11D6A0F711D5E
:1009B000811D911DA11D20D009F468943F912AE06A
:1009C000269F11243019305D3193DEF6CF01089552
:1009D000462F4770405D4193B3E00FD0C9F7F6CF83
:1009E000462F4F70405D4A3318F0495D31FD40524B
:1009F000419302D0A9F7EACFB4E0A69597958795E1
:100A000077956795BA95C9F70097610571050895BF
:100A10009B01AC010A2E069457954795379527956B
:100A2000BA95C9F7620F731F841F951FA01D089503
:100A3000D4D008F481E008950CD00AC102D140F06E
:100A4000F9D030F021F45F3F19F0EBC0511134C1FF
:100A5000EEC00FD198F39923C9F35523B1F3951B39
:100A6000550BBB27AA2762177307840738F09F5FCF
:100A70005F4F220F331F441FAA1FA9F333D00E2E3E
:100A80003AF0E0E830D091505040E695001CCAF7AB
:100A900029D0FE2F27D0660F771F881FBB1F261770
:100AA00037074807AB07B0E809F0BB0B802DBF0143
:100AB000FF2793585F4F2AF09E3F510568F0B1C061
:100AC000FBC05F3FECF3983EDCF386957795679526
:100AD000B795F7959F5FC9F7880F911D96958795F4
:100AE00097F90895E1E0660F771F881FBB1F621713
:100AF00073078407BA0720F0621B730B840BBA0BD1
:100B0000EE1F88F7E0950895BCD088F09F5790F0CD
:100B1000B92F9927B751A0F0D1F0660F771F881F22
:100B2000991F1AF0BA95C9F712C0B13081F0C3D03D
:100B3000B1E00895C0C0672F782F8827B85F39F0DB
:100B4000B93FCCF3869577956795B395D9F73EF481
:100B500090958095709561957F4F8F4F9F4F089529
:100B6000E89409C097FB3EF4909580957095619547
:100B70007F4F8F4F9F4F9923A9F0F92F96E9BB27FD
:100B80009395F695879577956795B795F111F8CF79
:100B9000FAF4BB0F11F460FF1BC06F5F7F4F8F4FE4
:100BA0009F4F16C0882311F096E911C0772321F0DA
:100BB0009EE8872F762F05C0662371F096E8862F72
:100BC00070E060E02AF09A95660F771F881FDAF7C9
:100BD000880F9695879597F90895990F0008550FF6
:100BE000AA0BE0E8FEEF16161706E807F907C0F0B3
:100BF00012161306E407F50798F0621B730B840BBB
:100C0000950B39F40A2661F0232B242B252B21F494
:100C100008950A2609F4A140A6958FEF811D811D34
:100C2000089597F99F6780E870E060E008959FEF6E
:100C300080EC089500240A94161617061806090673
:100C4000089500240A941216130614060506089542
:100C5000092E0394000C11F4882352F0BB0F40F4CA
:100C6000BF2B11F460FF04C06F5F7F4F8F4F9F4F0A
:100C7000089557FD9058440F551F59F05F3F71F08C
:100C80004795880F97FB991F61F09F3F79F08795F3
:100C90000895121613061406551FF2CF4695F1DF7C
:100CA00008C0161617061806991FF1CF869571050C
:100CB000610508940895E894BB2766277727CB0140
:100CC00097F908958ADF08F48FEF08950BD0C0CF0D
:100CD000B1DF28F0B6DF18F0952309F0A2CFA7CF37
:100CE0001124EACFC6DFA0F3959FD1F3950F50E012
:100CF000551F629FF001729FBB27F00DB11D639FCE
:100D0000AA27F00DB11DAA1F649F6627B00DA11D73
:100D1000661F829F2227B00DA11D621F739FB00D19
:100D2000A11D621F839FA00D611D221F749F332789
:100D3000A00D611D231F849F600D211D822F762F22
:100D40006A2F11249F5750408AF0E1F088234AF01F
:100D5000EE0FFF1FBB1F661F771F881F915050406B
:100D6000A9F79E3F510570F05CCFA6CF5F3FECF333
:100D7000983EDCF3869577956795B795F795E79557
:100D80009F5FC1F7FE2B880F911D9695879597F968
:100D9000089597FB092E05260ED057FD04D014D0D8
:100DA0000AD0001C38F450954095309521953F4F5E
:100DB0004F4F5F4F0895F6F7909580957095619528
:100DC0007F4F8F4F9F4F0895A1E21A2EAA1BBB1B86
:100DD000FD010DC0AA1FBB1FEE1FFF1FA217B30707
:100DE000E407F50720F0A21BB30BE40BF50B661F1D
:100DF000771F881F991F1A9469F7609570958095E1
:100E000090959B01AC01BD01CF0108952F923F92B7
:100E10004F925F926F927F928F929F92AF92BF920A
:100E2000CF92DF92EF92FF920F931F93CF93DF93B6
:100E3000CDB7DEB7CA1BDB0B0FB6F894DEBF0FBE13
:100E4000CDBF09942A88398848885F846E847D8460
:100E50008C849B84AA84B984C884DF80EE80FD8062
:100E60000C811B81AA81B981CE0FD11D0FB6F894D8
:0E0E7000DEBF0FBECDBFED010895F894FFCF99
:100E7E0050756C73206E7220256920402054696471
:100E8E003A2025752063796B6C6572203D2025759F
:100E9E00206D73203D20257520570A0D0054696D75
:100EAE006572206F766572666C6F77206E756D62F7
:100EBE0065722025690A0D00537461727475702075
:100ECE00436F6D706C657465640A0D00000000025E
:0A0EDE00000000006C02000000009C
:00000001FF
