:100000000C943E000C945B000C945B000C945B0021
:100010000C945B000C945B000C945B000C945B00F4
:100020000C945B000C945B000C945B000C945B00E4
:100030000C945B000C945B000C945B000C945B00D4
:100040000C945B000C945B000C945B000C945B00C4
:100050000C945B000C945B000C945B000C945B00B4
:100060000C945B000C945B000C945B000C945B00A4
:100070000C945B000C945B000C945B0011241FBE7D
:10008000CFEFD0E1DEBFCDBF12E0A0E0B1E0E8EC01
:10009000FBE002C005900D92A832B107D9F712E03B
:1000A000A8E2B2E001C01D92AE32B107E1F70E94B2
:1000B0008F020C94E2050C9400008F775F988EBD40
:1000C0000DB407FEFDCF85E58EBD0DB407FEFDCF57
:1000D0008EB55F9A089585E58EBD0DB407FEFDCF00
:1000E0008EB508958EBD0DB407FEFDCF08958CB575
:1000F00083658CBD08951F93182F8A3019F48DE005
:100100000E947B008091C00085FFFCCF1093C60049
:1001100080E090E01F9108958091C00087FFFCCFA0
:100120008091C600089588EB84B98FEF87B98AEE75
:100130008AB989E192E090932B0280932A0210926F
:10014000C5008CE08093C40088E18093C10086E004
:100150008093C20082E08093C0008093B1005D98DC
:100160005E9808959C0181E007C087BB1092B200A1
:10017000B89BFECF2050314091E021303907A8F7DD
:1001800081E087BB822F81958093B200B89BFECF20
:100190000895CF93DF93EC0105C088EE93E00E94B1
:1001A000B20021972097C9F7DF91CF9108950F935F
:1001B0001F93062F182F10685F9881E090E00E942F
:1001C000C9001EBD0DB407FEFDCF81E090E00E9486
:1001D000C9000EBD0DB407FEFDCF81E090E00E9486
:1001E000C9005F9A1F910F91089586E060E00E9418
:1001F000D70087E061E00E94D70089E06FE70E94A6
:10020000D7008BE064EF0E94D7008CE06FEE0E9475
:10021000D7008DE060E00E94D7008EE060E00E9491
:10022000D7008FE060E70E94D70080E160E00E9485
:10023000D70082E160E00E94D70083E160E00E9485
:10024000D70080E760E20E94D7008CE16DE10E9458
:10025000D7008DE160E40E94D70080E261EA0E944D
:10026000D70081E260E20E94D70082E26EE40E9441
:10027000D70083E265EA0E94D70084E260E00E9432
:10028000D70085E26AE00E94D7008CE260E00E941D
:10029000D7008DE260E00E94D7008EE260E00E940D
:1002A000D7008EE667E20E94D7008FE662E50E94E3
:1002B000D70080E36CE80E94D70082E36FEF0E94D2
:1002C000D70083E362E40E94D70084E360E40E94E5
:1002D000D70085E360E20E94D70086E36DE20E94CA
:1002E000D70087E364ED0E94D70088E360E00E94B6
:1002F000D70089E360E00E94D7008AE363E70E94A9
:10030000D7008BE36FE60E94D7008CE36EE60E9475
:10031000D7008DE367E60E94D7008EE361E10E947B
:10032000D7008FE363E70E94D70080E46FE60E9466
:10033000D70081E46EE60E94D70082E467E60E945F
:10034000D70083E46FEF0E94D70084E46FEF0E9430
:10035000D70085E46FEF0E94D70086E46FEF0E941C
:10036000D70086E561E00E94D7008DE667E00E9435
:10037000D70089E760E00E94D7008AE760E00E942A
:10038000D70081E762E20E94D70082E768E40E941A
:10039000D70083E760E00E94D70084E760E00E9416
:1003A000D70085E763E50E94D70086E764E60E94F0
:1003B000D70087E760E00E94D7008AE56FE70E94D8
:1003C000D70089E560E40E94D70088E560E80E94D4
:1003D000D7008AE66BE00E94D70088E664E00E94BE
:1003E000D7008FE163E00E94D7000895CF93DF9399
:1003F00087E061E00E94D7005E985D9A82E390E01A
:100400000E94C90088E063E00E94D70088E060E0B5
:100410000E94D70084E360E40E94D7008EE361E18C
:100420000E94D700C8E0D2E08FE769910E94D70010
:1004300082E0C931D807C1F785E064E00E94D700A7
:1004400083E00E945D0084E00E945D0087E069E037
:100450000E94D7004C99FECF87E061E00E94D70050
:100460005E985D98DF91CF9108954C9903C080E02C
:1004700091E002C089E091E00E94F9020895CF92D4
:10048000DF92EF92FF920F931F93CF93DF9398E049
:10049000E92E92E0F92E8701CFE0D0E082E1C82E6C
:1004A00081E0D82E8091C00087FFFCCF8091C600EC
:1004B000D8018D938D0100D000D000D0EDB7FEB7EC
:1004C0003196ADB7BEB71296DC92CE921197828369
:1004D0001382D583C4830E94DD022197EDB7FEB756
:1004E00036960FB6F894FEBF0FBEEDBFF2E00831AE
:1004F0001F07C1F690E0D7018D917D01980FB8E1FB
:10050000EB16B2E0FB06B9F790931802DF91CF919A
:100510001F910F91FF90EF90DF90CF9008950F9370
:100520001F93CF93DF930E9493008CB583658CBD9E
:100530005F9A83E491E00E94F90280E00E945D00EE
:1005400081E00E945D0085E00E945D0086E00E94DF
:100550005D0087E00E945D0088E00E945D0080E70A
:1005600091E00E94F9020E94F5000E94F6018BE9D9
:1005700091E00E94F90208EC11E00E943F0200D0D5
:10058000EDB7FEB7128301830E94DD02C8E0D2E01E
:100590000F900F90899190E00E94F202F2E0C93131
:1005A000DF07C1F78AE090E00E94F2020E94F601A4
:1005B00087ED91E00E94F902E0CFA0E0B0E0E3EE29
:1005C000F2E00C94BB05FE0135966191719180912A
:1005D0002A0290912B02AF010E942E032096E2E0A6
:1005E0000C94D70560912A0270912B020E9421057C
:1005F00008950F931F93CF93DF938C01E0912A020C
:10060000F0912B02838181FF21C0C0E0D0E00DC0BA
:10061000E0912A02F0912B0220853185BF01F9017A
:100620000995892B11F0CFEFDFEFF80181918F0150
:10063000882371F7E0912A02F0912B022085318501
:100640008AE0BF01F9010995892B11F0CFEFDFEFA7
:10065000CE01DF91CF911F910F910895ABE0B0E0F3
:10066000E4E3F3E00C94AB053C012B015A01FC01DF
:1006700017821682838181FD03C06FEF7FEFC6C1B1
:100680009AE0892E1E010894211C311CF30123815C
:10069000F20123FD859123FF81912F01882309F425
:1006A000B2C1853239F423FD859123FF81912F0159
:1006B000853229F490E0B3010E942105E7CF982FFD
:1006C000FF24EE249924FFE1FF15D0F09B3269F05E
:1006D0009C3228F4903259F0933291F40EC09D323E
:1006E00049F0903369F441E024C052E0F52A84E0F7
:1006F000F82A28C098E0F92A25C0E0E1FE2A22C0A5
:10070000F7FC29C0892F80538A3070F4F6FE05C0AB
:10071000989C902C1124980E15C0E89CE02C112474
:10072000E80EF0E2FF2A0EC09E3229F4F6FC6BC1FF
:1007300040E4F42A07C09C3619F450E8F52A02C0B8
:10074000983649F4F20123FD959123FF91912F01F1
:10075000992309F0B8CF892F8554833018F080523F
:10076000833038F444E050E0A40EB51E5FE35983B3
:100770000FC0933631F0933779F0933509F056C0B6
:1007800020C0F5018081898342E050E0A40EB51EAF
:10079000610101E010E012C0F501C080D180F6FCDB
:1007A00003C06FEF7FEF02C0692D70E042E050E0C0
:1007B000A40EB51EC6010E9416058C015FE7F52246
:1007C00014C0F501C080D180F6FC03C06FEF7FEF4D
:1007D00002C0692D70E042E050E0A40EB51EC601D3
:1007E0000E940B058C0150E8F52AF3FE07C01AC0E1
:1007F00080E290E0B3010E942105EA948E2D90E002
:1008000008171907A8F30EC0F601F7FC8591F7FE4B
:1008100081916F0190E0B3010E942105E110EA94FB
:10082000015010400115110579F7EAC0943611F016
:10083000993669F5F7FE08C0F501208131814281C2
:10084000538184E090E00AC0F501808191819C0190
:10085000442737FD4095542F82E090E0A80EB91E42
:100860009FE6F92257FF09C0509540953095219594
:100870003F4F4F4F5F4FE0E8FE2ACA01B901A10187
:100880002AE030E00E944D05D82ED21840C095379E
:1008900029F41F2D1F7E2AE030E01DC01F2D197F77
:1008A0009F3661F0903720F4983509F0ACC00FC046
:1008B000903739F0983709F0A6C004C028E030E03E
:1008C0000AC0106114FD146020E130E004C014FD82
:1008D000166020E132E017FF08C0F50160817181E8
:1008E0008281938144E050E008C0F50180819181CC
:1008F000BC0180E090E042E050E0A40EB51EA101F2
:100900000E944D05D82ED2188FE7F82EF122F6FE60
:100910000BC05EEFF522D91438F4F4FE07C0F2FCE8
:1009200005C08FEEF82202C01D2D01C0192DF4FE66
:100930000DC0FE01ED0DF11D8081803319F499EE9B
:10094000F92208C01F5FF2FE05C003C08F2D867814
:1009500009F01F5F0F2DF3FC14C0F0FE0FC01E1531
:1009600010F09D2C0BC09D2C9E0C911A1E2D06C0C4
:1009700080E290E0B3010E9421051F5F1E15C0F3C5
:1009800004C01E1510F4E11A01C0EE2404FF0FC0CC
:1009900080E390E0B3010E94210502FF1DC001FD2C
:1009A00003C088E790E00EC088E590E00BC0802F80
:1009B000867891F001FF02C08BE201C080E2F7FC73
:1009C0008DE290E0B3010E94210506C080E390E033
:1009D000B3010E9421059A94D914C0F3DA94F1016D
:1009E000ED0DF11D808190E0B3010E942105DD2015
:1009F000A9F706C080E290E0B3010E942105EA94C5
:100A0000EE20C1F743CEF30166817781CB012B96AF
:100A1000E2E10C94C705FC010590615070400110A3
:100A2000D8F7809590958E0F9F1F0895FC01615017
:100A3000704001900110D8F7809590958E0F9F1F00
:100A400008950F931F93CF93DF938C01EB018B815C
:100A500081FF1BC082FF0DC02E813F818C819D8153
:100A60002817390764F4E881F9810193F983E88351
:100A700006C0E885F985802F0995892B31F48E8190
:100A80009F8101969F838E8302C00FEF1FEFC801E5
:100A9000DF91CF911F910F910895FA01AA27283075
:100AA00051F1203181F1E8946F936E7F6E5F7F4F3B
:100AB0008F4F9F4FAF4FB1E03ED0B4E03CD0670FB7
:100AC000781F891F9A1FA11D680F791F8A1F911D0A
:100AD000A11D6A0F711D811D911DA11D20D009F45A
:100AE00068943F912AE0269F11243019305D31939C
:100AF000DEF6CF010895462F4770405D4193B3E085
:100B00000FD0C9F7F6CF462F4F70405D4A3318F02B
:100B1000495D31FD4052419302D0A9F7EACFB4E0DC
:100B2000A6959795879577956795BA95C9F7009794
:100B30006105710508959B01AC010A2E0694579535
:100B4000479537952795BA95C9F7620F731F841F8C
:100B5000951FA01D08952F923F924F925F926F9222
:100B60007F928F929F92AF92BF92CF92DF92EF923D
:100B7000FF920F931F93CF93DF93CDB7DEB7CA1BBE
:100B8000DB0B0FB6F894DEBF0FBECDBF09942A88E9
:100B9000398848885F846E847D848C849B84AA8491
:100BA000B984C884DF80EE80FD800C811B81AA811E
:100BB000B981CE0FD11D0FB6F894DEBF0FBECDBFE9
:080BC000ED010895F894FFCF48
:100BC800494E54203D3D203000494E54203D3D20A3
:100BD800310052656365697665642025632C20259C
:100BE8006420636861726163746572732072656DF5
:100BF80061696E696E6720666F72207061636B65EC
:100C0800740A002F6E2F6E2A2A2A2A2A2A2A2A5282
:100C1800464D323220436F6D6D756E69636174693C
:100C28006F6E20546573742A2A2A2A2A2A2A2A00CF
:100C38002A2A2A2A2A2A2A2A2A2A2A2A2A2A2A2A0C
:100C48002A2A2A2A2A2A2A2A2A2A2A2A2A2A2A2AFC
:100C58002A2A2A2A2A2A2A2A2A0A00456E7465720A
:100C6800696E67205458204D6F64652E2E2E476993
:100C78007665206D6520612031362D627974652096
:100C88007061636B65740A005472616E736D697488
:100C980074696E673A20005472616E736D697420CE
:100CA800646F6E652E2E2E507265737320616E7997
:100CB800206B657920746F207472616E736D69742E
:100CC80020616761696E0A00303132333435363756
:100CD80038393A3B3C3D3E3F7800000002000000B6
:080CE800007B00000000000089
:00000001FF
