:100000000C943E000C9450010C9444010C94EE00AE
:100010000C945B000C945B000C945B000C945C01F2
:100020000C945B000C945B000C945B000C945B00E4
:100030000C945B000C945B000C945B000C947C01B2
:100040000C945B000C945B000C945B000C945B00C4
:100050000C945B000C945B000C945B000C945B00B4
:100060000C945B000C945B000C945B000C945B00A4
:100070000C945B000C945B000C945B0011241FBE7D
:10008000CFEFD0E1DEBFCDBF11E0A0E0B1E0EAEFFD
:10009000F4E102C005900D92A639B107D9F711E03D
:1000A000A6E9B1E001C01D92A83CB107E1F70E94AA
:1000B000F5010C947B0A0C940000AF92BF92CF9292
:1000C000DF92EF92FF920F931F93A0E0B0E0BC018C
:1000D000CD010E9427065B016C012BEA3AEA4AEA4D
:1000E0005EE30E94DD067B018C0120E030E040E809
:1000F0005FE30E948F05882314F461E053C0C801B8
:10010000B70120E030E04FE753E40E94D90618160B
:100110000CF044C0C601B50120E030E04AE754E4E9
:100120000E9493055B016C0120E030E04AE753E454
:100130000E94DD067B018C0120E030E040E85FE3B7
:100140000E948F0588231CF461E070E023C0C80181
:10015000B70120E03FEF4FE757E40E94D906181699
:10016000ACF4C601B50120E030E040E251E40E9469
:10017000DD060E94FB05CB01672BB1F029E130E0E1
:10018000F9013197F1F70197D9F70EC0C801B7010E
:100190000E94FB05CB010197F1F706C0C801B7012A
:1001A0000E94FB056A95F1F71F910F91FF90EF9068
:1001B000DF90CF90BF90AF900895CF93DF93EC0185
:1001C0001C161D0644F488EE93E00E945D00219702
:1001D0001C161D06C4F3DF91CF9108951F920F9254
:1001E0000FB60F9211242F933F934F935F936F930A
:1001F0007F938F939F93AF93BF93EF93FF93F89465
:10020000E4E8F0E0608171811182108280E090E08A
:100210000E9427062FE632E143E85FE30E94DD06F5
:100220000E94FB0520919A0130919B01260F371FF8
:1002300030939B0120939A019B0140E050E060E8DD
:100240007EEE86E390E00E94400730939901209370
:100250009801809196019091970101969093970152
:10026000809396017894FF91EF91BF91AF919F9108
:100270008F917F916F915F914F913F912F910F904F
:100280000FBE0F901F9018951F920F920FB60F92EE
:100290001124F89478940F900FBE0F901F9018952A
:1002A0001F920F920FB60F921124F89478940F902A
:1002B0000FBE0F901F9018951F920F920FB60F92BE
:1002C0001124F89478940F900FBE0F901F901895FA
:1002D000DF93CF93CDB7DEB727970FB6F894DEBF85
:1002E0000FBECDBF81E027960FB6F894DEBF0FBEDC
:1002F000CDBFCF91DF9108951F920F920FB60F924D
:1003000011242F933F934F935F936F937F938F931A
:100310009F93AF93BF93EF93FF93F89480919C01C9
:100320008F5F80939C011092850010928400209131
:100330009C0100D000D0EDB7FEB7319680E091E08F
:1003400091838083228313820E947D0778940F908B
:100350000F900F900F90FF91EF91BF91AF919F91F0
:100360008F917F916F915F914F913F912F910F905E
:100370000FBE0F901F9018958FE781B988E082B962
:1003800090EA94B915B817B818B882E68AB91BB8BC
:10039000EDE3F0E010829093690087E08CBB84E08D
:1003A00080831092730010926D0010926C00109276
:1003B0006B00109268001092800085E080938100AD
:1003C0001092890010928800109264008AE691E0F1
:1003D0009093C5018093C4018CE090E00E94DB0201
:1003E0000E94230378948FEF08955F926F927F921B
:1003F0008F929F92AF92BF92CF92DF92EF92FF9235
:100400000F931F93CF93DF931092B7018FEF8093D9
:10041000AF010E94BC010E94FB0384E690E00E94B1
:100420005D0087E060E80E94010480E197E20E949D
:100430005D00E2E2F0E080818860808300D08BE1A3
:1004400091E0EDB7FEB7928381830E947D070F9004
:100450000F9080E00E94E70381E00E94E70385E0BF
:100460000E94E70386E00E94E70387E00E94E7031B
:1004700088E00E94E7030E9429040E942A05AEE951
:10048000B1E0ECE3F1E082E101900D928150E1F7FF
:10049000C0E0D0E00F2EFAE25F2EF02D0F2EFEE42A
:1004A0006F2EF1E07F2EF02D0EE911E04801089447
:1004B000811C911CAA24BB246894A1F8A00EB11E33
:1004C0000F2EF3E0CF2EDD24F02DC00ED11EEE2432
:1004D000FF246894E2F8E00EF11E8091960190915D
:1004E00097018C179D0709F461C080919A01909142
:1004F0009B01885E934008F459C0C0919601D09149
:10050000970110929B0110929A010E942A03859DE7
:10051000C001112480939D018091960190919701D3
:10052000209198013091990140919D016DB77EB75E
:10053000685070400FB6F8947EBF0FBE6DBFEDB728
:10054000FEB73196718260829383828335832483E0
:10055000468317820E947D078091960190919701B2
:10056000F80190838091960190919701F401808326
:100570008091980190919901F50190838091980163
:1005800090919901F601808380919D01F70180830C
:100590006DB77EB7685F7F4F0FB6F8947EBF0FBE12
:1005A0006DBF85E090E0B8010E94BE0384E690E054
:1005B0000E94DD0092CF9093C5008093C40088E133
:1005C0008093C1008EE08093C20008959093CD0087
:1005D0008093CC0088E18093C9008EE08093CA00AC
:1005E0000895DC01E0ECF0E0808185FFFDCF8C9187
:1005F0008093C6000895582FDB01442349F0282F2B
:10060000392FF90181918D938E2F851B8417D0F39B
:1006100008951F93182F8A3019F48DE00E94090362
:10062000E0ECF0E0808185FFFDCF1093C60080E014
:1006300090E01F910895E0ECF0E080818823ECF7D2
:100640008091C600089580E280937C0082E88093C8
:100650007A0008958F929F92AF92BF92CF92DF92CD
:10066000EF92FF920F931F93DF93CF9300D00F92DF
:10067000CDB7DEB7ECE7F0E08081807E80838081BB
:100680008760808300E010E00F2EFAE7EF2EFF2452
:10069000F02D0F2EF9E78F2E9924F02D5E0108948E
:1006A000A11CB11C0F2EF8E7CF2EF1E0DF2EF02DAC
:1006B000F701808186FD03C0808180648083F7011B
:1006C000808186FDFCCFF4018081F501E00FF11FF0
:1006D000808300D000D000D0EDB7FEB73196D18234
:1006E000C08213830283848315820E947D070F5F7B
:1006F0001F4F8DB79EB706960FB6F8949EBF0FBEDC
:100700008DBF03301105A1F620E030E0DE01119627
:1007100001E010E019C0822F90E0FD01E80FF91F01
:100720007081AC014F5F5F4FFD01E40FF51F6081E9
:10073000671748F4FD01E80FF91F6083FD01E40F1E
:10074000F51F7083302F2F5F223028F3313019F4DA
:10075000212F312FF9CF8A810F900F900F90CF91D9
:10076000DF911F910F91FF90EF90DF90CF90BF909E
:10077000AF909F908F90089580E00895AC01181677
:10078000190614F020E00CC0262F372FF90120E0C5
:100790008191280F8E2F861B90E084179507C4F354
:1007A0002093AE010E942A0581E00895089585E511
:1007B0008EBDEDE4F0E080818823ECF78EB50895DE
:1007C0008EBDEDE4F0E080818823ECF708950F936F
:1007D0001F9302E210E0F8019081977F90838F775A
:1007E0000E94E0030E94D703F801908198609083F3
:1007F0001F910F910895ECE4F0E080818065808383
:100800000895EF92FF920F931F93F82EE62E02E2C7
:1008100010E0F8018081877F808381E090E00E9472
:10082000DD008F2D80680E94E00381E090E00E944F
:10083000DD008E2D0E94E00381E090E00E94DD004B
:10084000F8018081886080831F910F91FF90EF9065
:10085000089586E060E00E94010487E061E00E9464
:10086000010489E06FE70E9401048BE064EF0E94BD
:1008700001048CE06FEE0E9401048DE060E00E94B4
:1008800001048EE060E00E9401048FE060E70E94B6
:10089000010480E160E00E94010482E160E00E94C6
:1008A000010483E160E00E94010480E760E20E94AD
:1008B00001048CE16DE10E9401048DE160E40E947D
:1008C000010480E261EA0E94010481E260E20E9488
:1008D000010482E26EE40E94010483E265EA0E9460
:1008E000010484E260E00E94010485E26AE00E9463
:1008F00001048CE260E00E9401048DE260E00E944D
:1009000001048EE260E00E9401048EE667E20E942C
:1009100001048FE662E50E94010480E36CE80E9416
:10092000010482E36FEF0E94010483E362E40E940A
:10093000010484E360E40E94010485E360E20E9414
:10094000010486E36DE20E94010487E364ED0E94E6
:10095000010488E360E00E94010489E360E00E94F2
:1009600001048AE363E70E9401048BE36FE60E94BF
:1009700001048CE36EE60E9401048DE367E60E94A9
:1009800001048EE361E10E9401048FE363E70E94AA
:10099000010480E46FE60E94010481E46EE60E9497
:1009A000010482E467E60E94010483E46FEF0E9481
:1009B000010484E46FEF0E94010485E46FEF0E945C
:1009C000010486E46FEF0E94010486E561E00E9465
:1009D00001048DE667E00E94010489E760E00E945F
:1009E00001048AE760E00E94010481E762E20E945C
:1009F000010482E768E40E94010483E760E00E944A
:100A0000010484E760E00E94010485E763E50E9439
:100A1000010486E764E60E94010487E760E00E9423
:100A200001048AE56FE70E94010489E560E40E9401
:100A3000010488E560E80E9401048AE66BE00E94F8
:100A4000010488E664E00E9401048FE163E00E94F3
:100A5000010408950F931F93CF93DF9387E061E024
:100A60000E940104EBE2F0E080818F7B8083808133
:100A70008062808382E390E00E94DD0088E063E092
:100A80000E94010488E060E00E94010484E360E4C5
:100A90000E9401048EE361E10E940104CEE9D1E0ED
:100AA00000EB11E08FE769910E940104C017D107A4
:100AB000C9F785E064E00E94010483E00E94E70337
:100AC00084E00E94E70387E069E00E940104E9E214
:100AD000F0E0808184FDFDCF87E061E00E940104A9
:100AE000EBE2F0E080818F7B808380818F7D80834B
:100AF000DF91CF911F910F9108954C9907C083E822
:100B000091E00E94920720E030E006C08CE891E07E
:100B10000E94920721E030E0822F932F0895D4D0D5
:100B200008F481E008950CD00AC102D140F0F9D058
:100B300030F021F45F3F19F0EBC0511134C1EEC029
:100B40000FD198F39923C9F35523B1F3951B550B96
:100B5000BB27AA2762177307840738F09F5F5F4F90
:100B6000220F331F441FAA1FA9F333D00E2E3AF0D1
:100B7000E0E830D091505040E695001CCAF729D0EB
:100B8000FE2F27D0660F771F881FBB1F261737073A
:100B90004807AB07B0E809F0BB0B802DBF01FF276A
:100BA00093585F4F2AF09E3F510568F0B1C0FBC0DB
:100BB0005F3FECF3983EDCF3869577956795B795A4
:100BC000F7959F5FC9F7880F911D9695879597F9BF
:100BD0000895E1E0660F771F881FBB1F6217730738
:100BE0008407BA0720F0621B730B840BBA0BEE1F4D
:100BF00088F7E0950895BCD088F09F5790F0B92F02
:100C00009927B751A0F0D1F0660F771F881F991F61
:100C10001AF0BA95C9F712C0B13081F0C3D0B1E073
:100C20000895C0C0672F782F8827B85F39F0B93F83
:100C3000CCF3869577956795B395D9F73EF4909563
:100C40008095709561957F4F8F4F9F4F0895E894E1
:100C500009C097FB3EF490958095709561957F4F04
:100C60008F4F9F4F9923A9F0F92F96E9BB279395B2
:100C7000F695879577956795B795F111F8CFFAF4C2
:100C8000BB0F11F460FF1BC06F5F7F4F8F4F9F4FF3
:100C900016C0882311F096E911C0772321F09EE851
:100CA000872F762F05C0662371F096E8862F70E0B7
:100CB00060E02AF09A95660F771F881FDAF7880F91
:100CC0009695879597F90895990F0008550FAA0BE7
:100CD000E0E8FEEF16161706E807F907C0F012164F
:100CE0001306E407F50798F0621B730B840B950B52
:100CF00039F40A2661F0232B242B252B21F40895A7
:100D00000A2609F4A140A6958FEF811D811D089543
:100D100097F99F6780E870E060E008959FEF80ECAE
:100D2000089500240A941616170618060906089551
:100D300000240A9412161306140605060895092EB7
:100D40000394000C11F4882352F0BB0F40F4BF2B26
:100D500011F460FF04C06F5F7F4F8F4F9F4F089566
:100D600057FD9058440F551F59F05F3F71F047955C
:100D7000880F97FB991F61F09F3F79F08795089541
:100D8000121613061406551FF2CF4695F1DF08C060
:100D9000161617061806991FF1CF8695710561057D
:100DA00008940895E894BB2766277727CB0197F925
:100DB00008958ADF08F48FEF08950BD0C0CFB1DF1C
:100DC00028F0B6DF18F0952309F0A2CFA7CF1124A1
:100DD000EACFC6DFA0F3959FD1F3950F50E0551FE2
:100DE000629FF001729FBB27F00DB11D639FAA2780
:100DF000F00DB11DAA1F649F6627B00DA11D661FCF
:100E0000829F2227B00DA11D621F739FB00DA11DEF
:100E1000621F839FA00D611D221F749F3327A00DA9
:100E2000611D231F849F600D211D822F762F6A2F45
:100E300011249F5750408AF0E1F088234AF0EE0FCA
:100E4000FF1FBB1F661F771F881F91505040A9F7D7
:100E50009E3F510570F05CCFA6CF5F3FECF3983E0C
:100E6000DCF3869577956795B795F795E7959F5F3E
:100E7000C1F7FE2B880F911D9695879597F90895D8
:100E800097FB092E05260ED057FD04D014D00AD0AA
:100E9000001C38F450954095309521953F4F4F4FA9
:100EA0005F4F0895F6F790958095709561957F4F07
:100EB0008F4F9F4F0895A1E21A2EAA1BBB1BFD0165
:100EC0000DC0AA1FBB1FEE1FFF1FA217B307E40729
:100ED000F50720F0A21BB30BE40BF50B661F771F81
:100EE000881F991F1A9469F7609570958095909561
:100EF0009B01AC01BD01CF010895A0E0B0E0E3E8A3
:100F0000F7E00C94540AFE0135966191719180913D
:100F1000C4019091C501AF010E94C7072096E2E08D
:100F20000C94700A0F931F93CF93DF938C01E09181
:100F3000C401F091C501838181FF21C0C0E0D0E0F0
:100F40000DC0E091C401F091C50120853185BF013C
:100F5000F9010995892B11F0CFEFDFEFF8018191AD
:100F60008F01882371F7E091C401F091C5012085BC
:100F700031858AE0BF01F9010995892B11F0CFEF86
:100F8000DFEFCE01DF91CF911F910F910895ABE07C
:100F9000B0E0EDECF7E00C94440A3C012B015A015F
:100FA000FC0117821682838181FD03C06FEF7FEF02
:100FB000C6C19AE0892E1E010894211C311CF30140
:100FC0002381F20123FD859123FF81912F01882345
:100FD00009F4B2C1853239F423FD859123FF819153
:100FE0002F01853229F490E0B3010E94BA09E7CFBE
:100FF000982FFF24EE249924FFE1FF15D0F09B32B7
:1010000069F09C3228F4903259F0933291F40EC07A
:101010009D3249F0903369F441E024C052E0F52A52
:1010200084E0F82A28C098E0F92A25C0E0E1FE2AE9
:1010300022C0F7FC29C0892F80538A3070F4F6FE55
:1010400005C0989C902C1124980E15C0E89CE02CAB
:101050001124E80EF0E2FF2A0EC09E3229F4F6FCBD
:101060006BC140E4F42A07C09C3619F450E8F52A15
:1010700002C0983649F4F20123FD959123FF919126
:101080002F01992309F0B8CF892F8554833018F0A8
:101090008052833038F444E050E0A40EB51E5FE384
:1010A00059830FC0933631F0933779F0933509F0B7
:1010B00056C020C0F5018081898342E050E0A40E33
:1010C000B51E610101E010E012C0F501C080D180C1
:1010D000F6FC03C06FEF7FEF02C0692D70E042E0C5
:1010E00050E0A40EB51EC6010E94AF098C015FE757
:1010F000F52214C0F501C080D180F6FC03C06FEF6B
:101100007FEF02C0692D70E042E050E0A40EB51EF2
:10111000C6010E94A4098C0150E8F52AF3FE07C01D
:101120001AC080E290E0B3010E94BA09EA948E2DC1
:1011300090E008171907A8F30EC0F601F7FC859197
:10114000F7FE81916F0190E0B3010E94BA09E110AE
:10115000EA94015010400115110579F7EAC0943660
:1011600011F0993669F5F7FE08C0F501208131814B
:101170004281538184E090E00AC0F5018081918131
:101180009C01442737FD4095542F82E090E0A80E43
:10119000B91E9FE6F92257FF09C05095409530953A
:1011A00021953F4F4F4F5F4FE0E8FE2ACA01B9013A
:1011B000A1012AE030E00E94E609D82ED21840C0F2
:1011C000953729F41F2D1F7E2AE030E01DC01F2D0A
:1011D000197F9F3661F0903720F4983509F0ACC044
:1011E0000FC0903739F0983709F0A6C004C028E046
:1011F00030E00AC0106114FD146020E130E004C04A
:1012000014FD166020E132E017FF08C0F50160818F
:1012100071818281938144E050E008C0F5018081B2
:101220009181BC0180E090E042E050E0A40EB51E48
:10123000A1010E94E609D82ED2188FE7F82EF122DC
:10124000F6FE0BC05EEFF522D91438F4F4FE07C0A9
:10125000F2FC05C08FEEF82202C01D2D01C0192D31
:10126000F4FE0DC0FE01ED0DF11D8081803319F4F7
:1012700099EEF92208C01F5FF2FE05C003C08F2D52
:10128000867809F01F5F0F2DF3FC14C0F0FE0FC02D
:101290001E1510F09D2C0BC09D2C9E0C911A1E2D1E
:1012A00006C080E290E0B3010E94BA091F5F1E15DC
:1012B000C0F304C01E1510F4E11A01C0EE2404FFAF
:1012C0000FC080E390E0B3010E94BA0902FF1DC085
:1012D00001FD03C088E790E00EC088E590E00BC0F8
:1012E000802F867891F001FF02C08BE201C080E27E
:1012F000F7FC8DE290E0B3010E94BA0906C080E3DA
:1013000090E0B3010E94BA099A94D914C0F3DA9418
:10131000F101ED0DF11D808190E0B3010E94BA0949
:10132000DD20A9F706C080E290E0B3010E94BA096F
:10133000EA94EE20C1F743CEF30166817781CB01B9
:101340002B96E2E10C94600AFC010590615070401C
:101350000110D8F7809590958E0F9F1F0895FC017E
:101360006150704001900110D8F7809590958E0FD4
:101370009F1F08950F931F93CF93DF938C01EB0171
:101380008B8181FF1BC082FF0DC02E813F818C812C
:101390009D812817390764F4E881F9810193F98365
:1013A000E88306C0E885F985802F0995892B31F4FB
:1013B0008E819F8101969F838E8302C00FEF1FEF66
:1013C000C801DF91CF911F910F910895FA01AA27CB
:1013D000283051F1203181F1E8946F936E7F6E5F78
:1013E0007F4F8F4F9F4FAF4FB1E03ED0B4E03CD026
:1013F000670F781F891F9A1FA11D680F791F8A1F09
:10140000911DA11D6A0F711D811D911DA11D20D06F
:1014100009F468943F912AE0269F11243019305D29
:101420003193DEF6CF010895462F4770405D41931A
:10143000B3E00FD0C9F7F6CF462F4F70405D4A3367
:1014400018F0495D31FD4052419302D0A9F7EACF2F
:10145000B4E0A6959795879577956795BA95C9F75E
:1014600000976105710508959B01AC010A2E069451
:101470005795479537952795BA95C9F7620F731F0A
:10148000841F951FA01D08952F923F924F925F9247
:101490006F927F928F929F92AF92BF92CF92DF9284
:1014A000EF92FF920F931F93CF93DF93CDB7DEB7E9
:1014B000CA1BDB0B0FB6F894DEBF0FBECDBF09947D
:1014C0002A88398848885F846E847D848C849B84D4
:1014D000AA84B984C884DF80EE80FD800C811B81E2
:1014E000AA81B981CE0FD11D0FB6F894DEBF0FBE11
:0A14F000CDBFED010895F894FFCF81
:1014FA0054696D6572206F766572666C6F77206EBF
:10150A00756D6265722025690A0D005374617274E3
:10151A00757020436F6D706C657465642C207665F8
:10152A007273696F6E20312E310A0D0030313233F9
:10153A003435363738393A3B3C3D3E3F200050750A
:10154A006C73206E722025693A20257520572C204D
:10155A00763A202575206D560A0000000002000028
:10156A0000000903000000004825693D2025752078
:10157A00202000494E54203D3D203000494E542041
:06158A003D3D2031000090
:00000001FF
