:100000000C943E000C945B000C945B000C945B0021
:100010000C945B000C945B000C945B000C945B00F4
:100020000C945B000C945B000C945B000C945B00E4
:100030000C945B000C945B000C945B000C945B00D4
:100040000C945B000C945B000C945B000C945B00C4
:100050000C945B000C945B000C945B000C945B00B4
:100060000C945B000C945B000C945B000C945B00A4
:100070000C945B000C945B000C945B0011241FBE7D
:10008000CFEFD0E1DEBFCDBF11E0A0E0B1E0E2E50F
:10009000FBE002C005900D92A03CB107D9F711E03A
:1000A000A0ECB1E001C01D92A93EB107E1F70E94AA
:1000B0002C020C94A7050C9400008F775F988EBDDE
:1000C0000DB407FEFDCF85E58EBD0DB407FEFDCF57
:1000D0008EB55F9A089585E58EBD0DB407FEFDCF00
:1000E0008EB508958EBD0DB407FEFDCF08958CB575
:1000F00080658CBD08951F93182F8A3019F48DE008
:100100000E947B008091C80085FFFCCF1093CE0039
:1001100080E090E01F9108958091C80087FFFCCF98
:100120008091CE00089588EB84B98FEF87B98AEE6D
:100130008AB981EB91E09093E6018093E5011092FA
:10014000CD008CE08093CC0088E18093C90086E0EC
:100150008093CA0082E08093C8008093B1005D98CC
:100160005E9808959C0181E007C087BB1092B200A1
:10017000B89BFECF2050314091E021303907A8F7DD
:1001800081E087BB822F81958093B200B89BFECF20
:100190000895CF93DF93EC0105C088EE93E00E94B1
:1001A000B20021972097C9F7DF91CF9108950F935F
:1001B0001F93062F182F10685F9881E090E00E942F
:1001C000C9001EBD0DB407FEFDCF81E090E00E9486
:1001D000C9000EBD0DB407FEFDCF81E090E00E9486
:1001E000C9005F9A1F910F91089587E061E00E9416
:1001F000D70083E00E945D0084E00E945D008EE7EE
:1002000061E10E94D70088E063E00E94D70088E0A7
:1002100060E00E94D70087E065E00E94D70085E09B
:1002200062E00E94D700089586E060E00E94D70057
:1002300087E061E00E94D70089E06FE70E94D70065
:100240008BE064EF0E94D7008CE06FEE0E94D70035
:100250008DE060E00E94D7008EE060E00E94D70051
:100260008FE060E70E94D70080E160E00E94D70045
:1002700082E160E00E94D70083E160E00E94D70045
:1002800080E760E20E94D7008CE16DE10E94D70018
:100290008DE160E40E94D70080E261EA0E94D7000D
:1002A00081E260E20E94D70082E26EE40E94D70001
:1002B00083E265EA0E94D70084E260E00E94D700F2
:1002C00085E26AE00E94D7008CE260E00E94D700DD
:1002D0008DE260E00E94D7008EE260E00E94D700CD
:1002E0008EE667E20E94D7008FE662E50E94D700A3
:1002F00080E36CE80E94D70082E36FEF0E94D70092
:1003000083E362E40E94D70084E360E40E94D700A4
:1003100085E360E20E94D70086E36DE20E94D70089
:1003200087E364ED0E94D70088E360E00E94D70075
:1003300089E360E00E94D7008AE363E70E94D70068
:100340008BE36FE60E94D7008CE36EE60E94D70035
:100350008DE367E60E94D7008EE361E10E94D7003B
:100360008FE363E70E94D70080E46FE60E94D70026
:1003700081E46EE60E94D70082E467E60E94D7001F
:1003800083E46FEF0E94D70084E46FEF0E94D700F0
:1003900085E46FEF0E94D70086E46FEF0E94D700DC
:1003A00086E561E00E94D7008DE667E00E94D700F5
:1003B00089E760E00E94D7008AE760E00E94D700EA
:1003C00081E762E20E94D70082E768E40E94D700DA
:1003D00083E760E00E94D70084E760E00E94D700D6
:1003E00085E763E50E94D70086E764E60E94D700B0
:1003F00087E760E00E94D7008AE56FE70E94D70098
:1004000089E560E40E94D70088E560E80E94D70093
:100410008AE66BE00E94D70088E664E00E94D7007D
:100420008FE163E00E94D700089587E061E00E94B9
:10043000D7005E9A5D9882E390E00E94C9000E9416
:10044000F50008954C9903C080E091E002C089E076
:1004500091E00E94BE020895EF92FF920F931F93C6
:10046000CF93DF930E9493008CB580658CBD5F9A1B
:1004700082E191E00E94BE0280E00E945D0000D017
:1004800000D0EDB7FEB731962BE331E0ADB7BEB784
:1004900012963C932E931197828313820E94A2029C
:1004A0000F900F900F900F9086E691E00E94BE0291
:1004B0000E94140182E991E00E94BE020E9415028E
:1004C00086EAE82E81E0F82E4C99FECF00EC11E090
:1004D000E8018FE70E945D008993B1E0C13DDB0731
:1004E000C1F7FE01719790E08191980F81E0E03DA6
:1004F000F807D1F780819817F1F487E061E00E9456
:10050000D70000D0ADB7BEB71296FC92EE9211970D
:100510000E94A2020F900F90F80181918F0190E04C
:100520000E94B702F1E0013D1F07B1F78AE090E0B9
:100530000E94B70202C00E94F50082E390E00E9490
:10054000C900C2CFA0E0B0E0E8EAF2E00C94800578
:10055000FE013596619171918091E5019091E601DE
:10056000AF010E94F3022096E2E00C949C0560919A
:10057000E5017091E6010E94E60408950F931F9330
:10058000CF93DF938C01E091E501F091E601838147
:1005900081FF21C0C0E0D0E00DC0E091E501F09105
:1005A000E60120853185BF01F9010995892B11F0FC
:1005B000CFEFDFEFF80181918F01882371F7E09190
:1005C000E501F091E601208531858AE0BF01F9015E
:1005D0000995892B11F0CFEFDFEFCE01DF91CF919D
:1005E0001F910F910895ABE0B0E0E9EFF2E00C94B9
:1005F00070053C012B015A01FC0117821682838190
:1006000081FD03C06FEF7FEFC6C19AE0892E1E0106
:100610000894211C311CF3012381F20123FD8591F3
:1006200023FF81912F01882309F4B2C1853239F467
:1006300023FD859123FF81912F01853229F490E0DC
:10064000B3010E94E604E7CF982FFF24EE249924FB
:10065000FFE1FF15D0F09B3269F09C3228F4903214
:1006600059F0933291F40EC09D3249F0903369F401
:1006700041E024C052E0F52A84E0F82A28C098E03E
:10068000F92A25C0E0E1FE2A22C0F7FC29C0892F03
:1006900080538A3070F4F6FE05C0989C902C11248B
:1006A000980E15C0E89CE02C1124E80EF0E2FF2A19
:1006B0000EC09E3229F4F6FC6BC140E4F42A07C058
:1006C0009C3619F450E8F52A02C0983649F4F20134
:1006D00023FD959123FF91912F01992309F0B8CF24
:1006E000892F8554833018F08052833038F444E0E9
:1006F00050E0A40EB51E5FE359830FC0933631F06E
:10070000933779F0933509F056C020C0F501808108
:10071000898342E050E0A40EB51E610101E010E0C3
:1007200012C0F501C080D180F6FC03C06FEF7FEFEF
:1007300002C0692D70E042E050E0A40EB51EC60173
:100740000E94DB048C015FE7F52214C0F501C08034
:10075000D180F6FC03C06FEF7FEF02C0692D70E01F
:1007600042E050E0A40EB51EC6010E94D0048C01E8
:1007700050E8F52AF3FE07C01AC080E290E0B3010A
:100780000E94E604EA948E2D90E008171907A8F35A
:100790000EC0F601F7FC8591F7FE81916F0190E0A4
:1007A000B3010E94E604E110EA94015010400115E3
:1007B000110579F7EAC0943611F0993669F5F7FE1C
:1007C00008C0F501208131814281538184E090E0AD
:1007D0000AC0F501808191819C01442737FD409535
:1007E000542F82E090E0A80EB91E9FE6F92257FF31
:1007F00009C050954095309521953F4F4F4F5F4F21
:10080000E0E8FE2ACA01B901A1012AE030E00E9415
:100810001205D82ED21840C0953729F41F2D1F7EFF
:100820002AE030E01DC01F2D197F9F3661F0903700
:1008300020F4983509F0ACC00FC0903739F09837E4
:1008400009F0A6C004C028E030E00AC0106114FD21
:10085000146020E130E004C014FD166020E132E0B5
:1008600017FF08C0F501608171818281938144E0A6
:1008700050E008C0F50180819181BC0180E090E0EA
:1008800042E050E0A40EB51EA1010E941205D82E30
:10089000D2188FE7F82EF122F6FE0BC05EEFF5229C
:1008A000D91438F4F4FE07C0F2FC05C08FEEF8222C
:1008B00002C01D2D01C0192DF4FE0DC0FE01ED0D6D
:1008C000F11D8081803319F499EEF92208C01F5F71
:1008D000F2FE05C003C08F2D867809F01F5F0F2D33
:1008E000F3FC14C0F0FE0FC01E1510F09D2C0BC0C1
:1008F0009D2C9E0C911A1E2D06C080E290E0B30143
:100900000E94E6041F5F1E15C0F304C01E1510F4FC
:10091000E11A01C0EE2404FF0FC080E390E0B301B0
:100920000E94E60402FF1DC001FD03C088E790E0BD
:100930000EC088E590E00BC0802F867891F001FF13
:1009400002C08BE201C080E2F7FC8DE290E0B301CF
:100950000E94E60406C080E390E0B3010E94E60432
:100960009A94D914C0F3DA94F101ED0DF11D808150
:1009700090E0B3010E94E604DD20A9F706C080E202
:1009800090E0B3010E94E604EA94EE20C1F743CE62
:10099000F30166817781CB012B96E2E10C948C0503
:1009A000FC010590615070400110D8F7809590953A
:1009B0008E0F9F1F0895FC0161507040019001103F
:1009C000D8F7809590958E0F9F1F08950F931F93D2
:1009D000CF93DF938C01EB018B8181FF1BC082FFE2
:1009E0000DC02E813F818C819D812817390764F4C9
:1009F000E881F9810193F983E88306C0E885F985E8
:100A0000802F0995892B31F48E819F8101969F83D8
:100A10008E8302C00FEF1FEFC801DF91CF911F91AE
:100A20000F910895FA01AA27283051F1203181F160
:100A3000E8946F936E7F6E5F7F4F8F4F9F4FAF4FE6
:100A4000B1E03ED0B4E03CD0670F781F891F9A1FF9
:100A5000A11D680F791F8A1F911DA11D6A0F711DAD
:100A6000811D911DA11D20D009F468943F912AE0B9
:100A7000269F11243019305D3193DEF6CF010895A1
:100A8000462F4770405D4193B3E00FD0C9F7F6CFD2
:100A9000462F4F70405D4A3318F0495D31FD40529A
:100AA000419302D0A9F7EACFB4E0A6959795879530
:100AB00077956795BA95C9F700976105710508950F
:100AC0009B01AC010A2E06945795479537952795BB
:100AD000BA95C9F7620F731F841F951FA01D089553
:100AE0002F923F924F925F926F927F928F929F923E
:100AF000AF92BF92CF92DF92EF92FF920F931F932C
:100B0000CF93DF93CDB7DEB7CA1BDB0B0FB6F894DC
:100B1000DEBF0FBECDBF09942A88398848885F841C
:100B20006E847D848C849B84AA84B984C884DF808D
:100B3000EE80FD800C811B81AA81B981CE0FD11D71
:100B40000FB6F894DEBF0FBECDBFED010895F89447
:020B5000FFCFD5
:100B5200494E54203D3D203000494E54203D3D2019
:100B620031002A2A2A2A2A2A2A2A52464D32322099
:100B7200436F6D6D756E69636174696F6E20546544
:100B820073742A2A2A2A2A2A2A2A00526561646947
:100B92006E672044545950452072656769737465C5
:100BA200722C2073686F756C642062652030783017
:100BB200383A202564000A2A2A2A2A2A2A2A2A2A94
:100BC2002A2A2A2A2A2A2A2A2A2A2A2A2A2A2A2A83
:100BD2002A2A2A2A2A2A2A2A2A2A2A2A2A2A2A2A73
:100BE2000A00456E746572696E67205258204D6F17
:100BF20064652E2E2E0052656365697665643A201F
:100C02000000000002000000007B00000000000065
:00000001FF
