:100000000C943E000C9446010C943A010C94EE00C2
:100010000C945B000C945B000C945B000C945201FC
:100020000C945B000C945B000C945B000C945B00E4
:100030000C945B000C945B000C945B000C945E01D0
:100040000C945B000C945B000C945B000C945B00C4
:100050000C945B000C945B000C945B000C945B00B4
:100060000C945B000C945B000C945B000C945B00A4
:100070000C943B030C945B000C945B0011241FBE9A
:10008000CFEFD0E1DEBFCDBF11E0A0E0B1E0EAE606
:10009000F1E102C005900D92A434B107D9F711E047
:1000A000A4E4B1E001C01D92A636B107E1F70E94B9
:1000B0002A020C94B3080C940000AF92BF92CF9226
:1000C000DF92EF92FF920F931F93A0E0B0E0BC018C
:1000D000CD010E9426075B016C0122E539E44DE960
:1000E0005FE30E94DC077B018C0120E030E040E808
:1000F0005FE30E948E06882314F461E053C0C801B8
:10010000B70120E030E04FE753E40E94D80718160B
:100110000CF044C0C601B50120E030E04AE754E4E9
:100120000E9492065B016C0126E636E646E654E440
:100130000E94DC077B018C0120E030E040E85FE3B7
:100140000E948E0688231CF461E070E023C0C80181
:10015000B70120E03FEF4FE757E40E94D807181699
:10016000ACF4C601B50120E030E040E251E40E9469
:10017000DC070E94FA06CB01672BB1F02CE530E0DA
:10018000F9013197F1F70197D9F70EC0C801B7010E
:100190000E94FA06CB010197F1F706C0C801B7012A
:1001A0000E94FA066A95F1F71F910F91FF90EF9068
:1001B000DF90CF90BF90AF900895CF93DF93EC0185
:1001C0001C161D0644F488EE93E00E945D00219702
:1001D0001C161D06C4F3DF91CF9108951F920F9254
:1001E0000FB60F9211242F933F934F935F936F930A
:1001F0007F938F939F93AF93BF93EF93FF93F89465
:10020000E4E8F0E0608171811182108280E090E08A
:100210000E94260722EF32ED4DE85EE30E94DC07E4
:100220000E94FA069B0140E050E060E87EEE86E323
:1002300090E00E943F08309347012093460180914F
:1002400044019091450101969093450180934401AA
:100250007894FF91EF91BF91AF919F918F917F9192
:100260006F915F914F913F912F910F900FBE0F9023
:100270001F9018951F920F920FB60F921124F894A9
:1002800078940F900FBE0F901F9018951F920F92A9
:100290000FB60F921124F89478940F900FBE0F9020
:1002A0001F9018951F920F920FB60F921124F89479
:1002B00078940F900FBE0F901F9018951F920F9279
:1002C0000FB60F9211242F933F934F935F936F9329
:1002D0007F938F939F93AF93BF93EF93FF93F89484
:1002E000809148018F5F80934801109285001092A1
:1002F00084002091480100D000D0EDB7FEB73196C0
:1003000080E091E091838083228313820E94FC032A
:1003100078940F900F900F900F90FF91EF91BF91F5
:10032000AF919F918F917F916F915F914F913F918D
:100330002F910F900FBE0F901F901895DF93CF93C2
:10034000CDB7DEB72E970FB6F894DEBF0FBECDBF88
:10035000288739874A875B876C877D878E8730310E
:10036000A1F5413371F04034D1F0403371F5809103
:10037000460190914701EAE4F1E09193808352E0D5
:1003800013C0809144019091450110924501109253
:100390004401EAE4F1E09193808352E005C080914A
:1003A000490180934A0151E01A824B831F828AE4FB
:1003B00091E0682F9E838D835C83298130E07E816C
:1003C00080E00E94850381E001C080E02E960FB698
:1003D000F894DEBF0FBECDBFCF91DF9108958FE7B8
:1003E00081B912B881E084B915B817B818B882E09D
:1003F0008AB91BB8EDE3F0E0108280EA80936900CF
:1004000087E08CBB84E080831092730010926D00B3
:1004100010926C0010926B00109268001092800095
:1004200085E08093810010928900109288001092DC
:10043000640086E391E0909363018093620187E119
:1004400090E00E94900281E090E00E949B027894EC
:100450008FEF0895FF920F931F93CF93DF93109226
:1004600055018FEF80934D0180E197E20E945D007E
:100470000E94EF0100D08BE191E0EDB7FEB79283CF
:1004800081830E94FC03C0E0D0E00F900F90FF2416
:10049000FA940FE211E00E9466038130A9F4F09211
:1004A0004D011092550120914E0130914F01409124
:1004B000500150915101609152017091530180910E
:1004C00054010E949E01E7CF80914D01803128F0B8
:1004D000F0924D0110925501DECF80914401909130
:1004E00045018C179D07B9F2C0914401D091450197
:1004F0000E94DF028093490180914601909147015B
:1005000000D000D0EDB7FEB73196118300839383FE
:1005100082830E94FC030F900F900F900F90BBCF2F
:100520009093C5008093C40088E18093C1008EE061
:100530008093C20008959093CD008093CC0088E111
:100540008093C9008EE08093CA000895DC01E0EC3E
:10055000F0E0808185FFFDCF8C918093C6000895E7
:10056000582FDB01442349F0282F392FF9018191BD
:100570008D938E2F851B8417D0F308951F93182F0A
:100580008A3019F48DE00E94BE02E0ECF0E0808138
:1005900085FFFDCF1093C60080E090E01F91089585
:1005A000E0ECF0E080818823ECF78091C6000895AC
:1005B00085E080937C0087E080937A0008950F9314
:1005C0001F93DF93CF9300D00F92CDB7DEB7ECE748
:1005D000F0E08081807E8083808187608083BE019F
:1005E0006F5F7F4FEAE7F0E049E750E09E012C5F44
:1005F0003F4F8081867019F480818660808380817E
:1006000086708630E1F3DA018C91DB018D93BD01B8
:10061000A217B30771F720E030E0DE01119601E088
:1006200010E019C0822F90E0FD01E80FF91F7081E2
:10063000AC014F5F5F4FFD01E40FF51F608167174D
:1006400048F4FD01E80FF91F6083FD01E40FF51F79
:100650007083302F2F5F223028F3313019F4212F8F
:10066000312FF9CF8A810F900F900F90CF91DF91AA
:100670001F910F9108951F920F920FB60F921124A0
:100680008F939F93EF93FF93F8949091CE009E37B2
:1006900019F410924D0110C09D3721F481E0809330
:1006A00055010AC080914D01E6E5F1E0E80FF11D2A
:1006B00090838F5F80934D017894FF91EF919F918C
:1006C0008F910F900FBE0F901F90189580914D0144
:1006D0008823C9F0809155018130A9F44FE451E09D
:1006E00086E591E0DC012D91FA0121932C91208384
:1006F000FC012281FA0122830396948383832D5F78
:10070000258381E0089580E00895EF92FF920F9392
:100710001F93DF93CF93CDB7DEB72D970FB6F89425
:10072000DEBF0FBECDBF2F83F32F388749875A878F
:10073000362F6B87972F7C878D87652F182F732F08
:10074000092F8EE78983FA834B835C837E010894AB
:10075000E11CF11CA8ECB0E02EEC30E0AE014B5FE8
:100760005F4F8C9185FFFDCFF70181917F01F901EA
:100770008083E416F506A9F7662311F4412F16C00D
:10078000572F412F272F302F8901A8ECB0E02EECF6
:1007900030E08C9185FFFDCFF80181918F01F90147
:1007A0008083480F802F851B861798F38DE78E83F3
:1007B0004D83BE016B5F7F4FA8ECB0E04EEC50E084
:1007C0009E01295F3F4F8C9185FFFDCFFB018191F9
:1007D000BF01FA01808362177307A9F781E02D96A4
:1007E0000FB6F894DEBF0FBECDBFCF91DF911F9142
:1007F0000F91FF90EF900895A0E0B0E0E2E0F4E008
:100800000C948C08FE013596619171918091620182
:1008100090916301AF010E9411042096E2E00C94D4
:10082000A808ABE0B0E0E7E1F4E00C947C083C0100
:100830002B015A01FC0117821682838181FD03C0BE
:100840006FEF7FEFC6C19AE0892E1E010894211C2C
:10085000311CF3012381F20123FD859123FF819156
:100860002F01882309F4B2C1853239F423FD859123
:1008700023FF81912F01853229F490E0B3010E947A
:100880000406E7CF982FFF24EE249924FFE1FF15FB
:10089000D0F09B3269F09C3228F4903259F09332B8
:1008A00091F40EC09D3249F0903369F441E024C0C8
:1008B00052E0F52A84E0F82A28C098E0F92A25C0F9
:1008C000E0E1FE2A22C0F7FC29C0892F80538A303C
:1008D00070F4F6FE05C0989C902C1124980E15C05B
:1008E000E89CE02C1124E80EF0E2FF2A0EC09E32B4
:1008F00029F4F6FC6BC140E4F42A07C09C3619F4D5
:1009000050E8F52A02C0983649F4F20123FD95918A
:1009100023FF91912F01992309F0B8CF892F855496
:10092000833018F08052833038F444E050E0A40E55
:10093000B51E5FE359830FC0933631F0933779F0DA
:10094000933509F056C020C0F5018081898342E0CB
:1009500050E0A40EB51E610101E010E012C0F501E7
:10096000C080D180F6FC03C06FEF7FEF02C0692D1D
:1009700070E042E050E0A40EB51EC6010E94F905E9
:100980008C015FE7F52214C0F501C080D180F6FC30
:1009900003C06FEF7FEF02C0692D70E042E050E0CE
:1009A000A40EB51EC6010E94EE058C0150E8F52A82
:1009B000F3FE07C01AC080E290E0B3010E94040673
:1009C000EA948E2D90E008171907A8F30EC0F601DF
:1009D000F7FC8591F7FE81916F0190E0B3010E94D1
:1009E0000406E110EA94015010400115110579F751
:1009F000EAC0943611F0993669F5F7FE08C0F501A2
:100A0000208131814281538184E090E00AC0F50168
:100A1000808191819C01442737FD4095542F82E0CD
:100A200090E0A80EB91E9FE6F92257FF09C0509525
:100A30004095309521953F4F4F4F5F4FE0E8FE2A9C
:100A4000CA01B901A1012AE030E00E943006D82E87
:100A5000D21840C0953729F41F2D1F7E2AE030E0C0
:100A60001DC01F2D197F9F3661F0903720F49835F7
:100A700009F0ACC00FC0903739F0983709F0A6C024
:100A800004C028E030E00AC0106114FD146020E1C9
:100A900030E004C014FD166020E132E017FF08C00A
:100AA000F501608171818281938144E050E008C04A
:100AB000F50180819181BC0180E090E042E050E04E
:100AC000A40EB51EA1010E943006D82ED2188FE7C1
:100AD000F82EF122F6FE0BC05EEFF522D91438F4A1
:100AE000F4FE07C0F2FC05C08FEEF82202C01D2DF7
:100AF00001C0192DF4FE0DC0FE01ED0DF11D808128
:100B0000803319F499EEF92208C01F5FF2FE05C088
:100B100003C08F2D867809F01F5F0F2DF3FC14C0E2
:100B2000F0FE0FC01E1510F09D2C0BC09D2C9E0CCE
:100B3000911A1E2D06C080E290E0B3010E940406C7
:100B40001F5F1E15C0F304C01E1510F4E11A01C08A
:100B5000EE2404FF0FC080E390E0B3010E9404067E
:100B600002FF1DC001FD03C088E790E00EC088E5CC
:100B700090E00BC0802F867891F001FF02C08BE2DD
:100B800001C080E2F7FC8DE290E0B3010E94040610
:100B900006C080E390E0B3010E9404069A94D91441
:100BA000C0F3DA94F101ED0DF11D808190E0B30105
:100BB0000E940406DD20A9F706C080E290E0B301A0
:100BC0000E940406EA94EE20C1F743CEF301668149
:100BD0007781CB012B96E2E10C949808FC010590FB
:100BE000615070400110D8F7809590958E0F9F1F2F
:100BF0000895FC016150704001900110D8F7809574
:100C000090958E0F9F1F08950F931F93CF93DF939F
:100C10008C01EB018B8181FF1BC082FF0DC02E81F7
:100C20003F818C819D812817390764F4E881F9811F
:100C30000193F983E88306C0E885F985802F09953B
:100C4000892B31F48E819F8101969F838E8302C010
:100C50000FEF1FEFC801DF91CF911F910F91089502
:100C6000FA01AA27283051F1203181F1E8946F93DD
:100C70006E7F6E5F7F4F8F4F9F4FAF4FB1E03ED083
:100C8000B4E03CD0670F781F891F9A1FA11D680F21
:100C9000791F8A1F911DA11D6A0F711D811D911D54
:100CA000A11D20D009F468943F912AE0269F1124C9
:100CB0003019305D3193DEF6CF010895462F47702D
:100CC000405D4193B3E00FD0C9F7F6CF462F4F7088
:100CD000405D4A3318F0495D31FD4052419302D0E6
:100CE000A9F7EACFB4E0A69597958795779567958C
:100CF000BA95C9F700976105710508959B01AC018C
:100D00000A2E06945795479537952795BA95C9F7B2
:100D1000620F731F841F951FA01D0895D4D008F47F
:100D200081E008950CD00AC102D140F0F9D030F032
:100D300021F45F3F19F0EBC0511134C1EEC00FD167
:100D400098F39923C9F35523B1F3951B550BBB2792
:100D5000AA2762177307840738F09F5F5F4F220F3F
:100D6000331F441FAA1FA9F333D00E2E3AF0E0E838
:100D700030D091505040E695001CCAF729D0FE2F84
:100D800027D0660F771F881FBB1F26173707480716
:100D9000AB07B0E809F0BB0B802DBF01FF279358CC
:100DA0005F4F2AF09E3F510568F0B1C0FBC05F3F26
:100DB000ECF3983EDCF3869577956795B795F795B4
:100DC0009F5FC9F7880F911D9695879597F90895AC
:100DD000E1E0660F771F881FBB1F62177307840748
:100DE000BA0720F0621B730B840BBA0BEE1F88F757
:100DF000E0950895BCD088F09F5790F0B92F9927BF
:100E0000B751A0F0D1F0660F771F881F991F1AF015
:100E1000BA95C9F712C0B13081F0C3D0B1E00895DE
:100E2000C0C0672F782F8827B85F39F0B93FCCF35F
:100E3000869577956795B395D9F73EF4909580950B
:100E4000709561957F4F8F4F9F4F0895E89409C02B
:100E500097FB3EF490958095709561957F4F8F4FED
:100E60009F4F9923A9F0F92F96E9BB279395F69503
:100E7000879577956795B795F111F8CFFAF4BB0F81
:100E800011F460FF1BC06F5F7F4F8F4F9F4F16C0E5
:100E9000882311F096E911C0772321F09EE8872F6F
:100EA000762F05C0662371F096E8862F70E060E02B
:100EB0002AF09A95660F771F881FDAF7880F9695A4
:100EC000879597F90895990F0008550FAA0BE0E848
:100ED000FEEF16161706E807F907C0F012161306FC
:100EE000E407F50798F0621B730B840B950B39F43C
:100EF0000A2661F0232B242B252B21F408950A26A2
:100F000009F4A140A6958FEF811D811D089597F9E1
:100F10009F6780E870E060E008959FEF80EC08959F
:100F200000240A94161617061806090608950024C8
:100F30000A9412161306140605060895092E039442
:100F4000000C11F4882352F0BB0F40F4BF2B11F4B6
:100F500060FF04C06F5F7F4F8F4F9F4F089557FD15
:100F60009058440F551F59F05F3F71F04795880F17
:100F700097FB991F61F09F3F79F0879508951216AE
:100F800013061406551FF2CF4695F1DF08C016165A
:100F900017061806991FF1CF86957105610508940B
:100FA0000895E894BB2766277727CB0197F9089522
:100FB0008ADF08F48FEF08950BD0C0CFB1DF28F09F
:100FC000B6DF18F0952309F0A2CFA7CF1124EACFFE
:100FD000C6DFA0F3959FD1F3950F50E0551F629F98
:100FE000F001729FBB27F00DB11D639FAA27F00D82
:100FF000B11DAA1F649F6627B00DA11D661F829FA9
:101000002227B00DA11D621F739FB00DA11D621F8D
:10101000839FA00D611D221F749F3327A00D611DAA
:10102000231F849F600D211D822F762F6A2F11248C
:101030009F5750408AF0E1F088234AF0EE0FFF1FDF
:10104000BB1F661F771F881F91505040A9F79E3F16
:10105000510570F05CCFA6CF5F3FECF3983EDCF318
:10106000869577956795B795F795E7959F5FC1F753
:10107000FE2B880F911D9695879597F9089597FBFC
:10108000092E05260ED057FD04D014D00AD0001C1E
:1010900038F450954095309521953F4F4F4F5F4F15
:1010A0000895F6F790958095709561957F4F8F4FD5
:1010B0009F4F0895A1E21A2EAA1BBB1BFD010DC074
:1010C000AA1FBB1FEE1FFF1FA217B307E407F507F8
:1010D00020F0A21BB30BE40BF50B661F771F881FD4
:1010E000991F1A9469F760957095809590959B016A
:1010F000AC01BD01CF0108952F923F924F925F92B4
:101100006F927F928F929F92AF92BF92CF92DF9217
:10111000EF92FF920F931F93CF93DF93CDB7DEB77C
:10112000CA1BDB0B0FB6F894DEBF0FBECDBF099410
:101130002A88398848885F846E847D848C849B8467
:10114000AA84B984C884DF80EE80FD800C811B8175
:10115000AA81B981CE0FD11D0FB6F894DEBF0FBEA4
:0A116000CDBFED010895F894FFCF14
:10116A0054696D6572206F766572666C6F77206E52
:10117A00756D6265722025690A0D00537461727477
:10118A00757020436F6D706C657465640A0D002577
:10119A007520570A0D000000000200000000BE0280
:0411AA000000000041
:00000001FF
