:100000000C943E000C9454010C946B010C948201EE
:100010000C945B000C945B000C945B000C949401BA
:100020000C945B000C945B000C945B000C945B00E4
:100030000C945B000C945B000C945B000C943D01F1
:100040000C945B000C945B000C945B000C945B00C4
:100050000C945B000C945B000C945B000C945B00B4
:100060000C945B000C945B000C945B000C945B00A4
:100070000C945B000C945B000C945B0011241FBE7D
:10008000CFEFD0E1DEBFCDBF15E0A0E0B1E0ECE9FD
:10009000FBE202C005900D92AE3AB107D9F715E028
:1000A000AEEAB5E001C01D92A53CB107E1F70E94A0
:1000B000AB010C94CC150C940000DF93CF9300D0CF
:1000C000CDB7DEB79A83898399818A810F900F908B
:1000D000CF91DF910895DF93CF93CDB7DEB7279708
:1000E0000FB6F894DEBF0FBECDBF9C838B831A8200
:1000F0001982A89513C082E291E09A8389831F82B6
:1001000089819A81009711F081E08F8389819A819A
:1001100001979A8389838F81882389F71E828B8137
:100120009C81009711F081E08E838B819C810197E7
:100130009C838B838E818823F1F61D8289819A812D
:10014000009711F081E08D838D8127960FB6F8948A
:10015000DEBF0FBECDBFCF91DF910895DF93CF9368
:1001600000D0CDB7DEB79A83898389819A810E94B6
:100170002A128FEF0F900F90CF91DF910895DF93A8
:10018000CF93CDB7DEB7E1E2F0E08FE78083E2E224
:10019000F0E01082E4E2F0E087E08083E5E2F0E066
:1001A00082E08083E7E2F0E01082E8E2F0E0108293
:1001B000EAE2F0E082E08083EBE2F0E01082EDE33F
:1001C000F0E01082E9E6F0E08AE08083A9E6B0E0A2
:1001D000E9E6F0E0808188628C93ECE3F0E087E070
:1001E0008083EDE3F0E083E08083E3E7F0E080E10B
:1001F0008083EDE6F0E01082ECE6F0E01082EBE6C2
:10020000F0E01082E8E6F0E088E08083E0E8F0E0EB
:100210001082E1E8F0E082E08083E8E8F0E011821B
:100220001082A4E2B0E0E4E2F0E08081282F30E028
:1002300081E090E002C0880F991F2A95E2F782635F
:100240008C93EFE6F0E081E08083E5E4F0E082E08B
:10025000808380E091E09093C2058093C10583E3A1
:1002600090E00E9476060E943C068CE00E949A086C
:1002700078948FEFCF91DF9108951F920F920FB670
:100280000F9211248F93DF93CF93CDB7DEB7F894FD
:1002900081E08093B1057894CF91DF918F910F9099
:1002A0000FBE0F901F9018951F920F920FB60F92CE
:1002B00011248F93DF93CF93CDB7DEB7F89481E00D
:1002C0008093AF057894CF91DF918F910F900FBEFF
:1002D0000F901F9018951F920F920FB60F92112436
:1002E0008F93DF93CF93CDB7DEB7F89482E08093FE
:1002F000AF057894CF91DF918F910F900FBE0F9043
:100300001F9018951F920F920FB60F921124DF9332
:10031000CF93CDB7DEB7F8947894CF91DF910F905B
:100320000FBE0F901F9018951F920F920FB60F924D
:1003300011248F93DF93CF93CDB7DEB7F89481E08C
:100340008093B0057894CF91DF918F910F900FBE7D
:100350000F901F901895DF93CF93CDB7DEB7C3549E
:10036000D0400FB6F894DEBF0FBECDBF1F8282E033
:100370008E838EE08D831C821B821A8219828AE012
:1003800090E00E946B000E94BF008EE091E00E940E
:100390004B0880E291E00E944B088E81833010F080
:1003A00082E08E8387E36D810E94EA080E94AB0C95
:1003B0008091B1058130E1F7A895E0ECF0E0808113
:1003C000882344F4E6ECF0E080816D810E94EA0825
:1003D0000E94AB0C8091B005882309F4E0C08E81A7
:1003E000882321F08E8181508E8302C082E08E832B
:1003F0008E81282F30E000D000D0EDB7FEB73196C7
:1004000081E391E091838083338322830E948F1262
:100410000F900F900F900F908E81282F30E0249630
:100420003FAF2EAF249724968EAD9FAD2497813099
:10043000910509F473C024962EAD3FAD2497223068
:10044000310541F024968EAD9FAD2497009709F4B5
:100450008BC09EC080E060E00E94E5078B819C819C
:100460008E549D4F2AE030E0B9010E948115CB01E6
:100470009A83898389819A819C01220F331FC90144
:10048000880F991F880F991F280F391F8B819C8116
:10049000821B930B9C012E543D4F8DB79EB708973E
:1004A0000FB6F8949EBF0FBE8DBFEDB7FEB7319665
:1004B000CE01C096918380838CE391E09383828305
:1004C00089819A8195838483378326830E94E012F1
:1004D0002DB73EB7285F3F4F0FB6F8943EBF0FBE13
:1004E0002DBFCE01C0960E944B0800D0EDB7FEB7DD
:1004F0003196CE01C096918380830E948F120F9017
:100500000F9000D0EDB7FEB731968EE491E0918365
:1005100080830E948F120F900F903AC080E060E0BD
:100520000E94E50784E691E00E944B0880E061E0CC
:100530000E94E5071F8207C086E891E00E944B08F1
:100540008F818F5F8F839F818D819817A8F300D053
:10055000EDB7FEB7319688E891E0918380830E94E1
:100560008F120F900F9014C080E060E00E94E507AA
:1005700080EA91E00E944B0800D0EDB7FEB73196BB
:1005800082EC91E0918380830E948F120F900F90F4
:1005900084E690E00E946B001092B00508C1809143
:1005A000AF05882309F403C18E81282F30E02296FD
:1005B0003FAF2EAF229722968EAD9FAD229781300E
:1005C000910509F470C022962EAD3FAD22972230DE
:1005D000310541F022968EAD9FAD2297009709F428
:1005E000B7C0DFC08091AF05813039F486E36D81FB
:1005F0000E94EA089C838B830AC08091AF058230F9
:1006000031F485E36D810E94EA089C838B8380E04E
:1006100060E00E94E5078B819C818E549D4F2AE00B
:1006200030E0B9010E948115CB019A8389838981C9
:100630009A819C01220F331FC901880F991F880FCF
:10064000991F280F391F8B819C81821B930B9C0162
:100650002E543D4F8DB79EB708970FB6F8949EBFA6
:100660000FBE8DBFEDB7FEB73196CE01C096918318
:10067000808388ED91E09383828389819A81958339
:100680008483378326830E94E0122DB73EB7285F0C
:100690003F4F0FB6F8943EBF0FBE2DBFCE01C096A0
:1006A0000E944B087EC08091AF058130D1F48D81CE
:1006B000282F30E000D000D0EDB7FEB7319689EE9C
:1006C00091E091838083338322830E948F120F9065
:1006D0000F900F900F9089E36D810E94EA088D833F
:1006E0001DC08091AF058230C9F48D81282F30E084
:1006F00000D000D0EDB7FEB7319687EF91E091833F
:100700008083338322830E948F120F900F900F906B
:100710000F9088E36D810E94EA088D8380E060E09D
:100720000E94E50784E691E00E944B0880E061E0CA
:100730000E94E5071F8207C086E891E00E944B08EF
:100740008F818F5F8F839F818D819817A8F329C038
:100750008091AF05813069F400D0EDB7FEB73196D6
:1007600083E092E0918380830E948F120F900F901C
:1007700010C08091AF05823061F400D0EDB7FEB7B4
:1007800031968EE092E0918380830E948F120F90C9
:100790000F9080E060E00E94E50780EA91E00E940F
:1007A0004B081092AF0584E690E00E946B00109217
:1007B000B105FECDDF93CF93CDB7DEB7EAEBF0E026
:1007C0008CE38083E8EBF0E080E28083ECEBF0E008
:1007D00084E0808381E0CF91DF910895DF93CF9310
:1007E000CDB7DEB7ECEBF0E080818823DCF7CF916A
:1007F000DF910895DF93CF930F92CDB7DEB7ECEB87
:10080000F0E084EA80830E94EE03E9EBF0E080816F
:10081000883051F0E9EBF0E08081803129F0E9EB9C
:10082000F0E08081898302C08FEF898389810F90F6
:10083000CF91DF910895DF93CF93CDB7DEB7ECEB87
:10084000F0E084E98083CF91DF910895DF93CF9327
:1008500000D000D00F92CDB7DEB79D838C838FEF91
:100860008B831A8293C00E94FA038B838B818F3F04
:1008700089F48A81882F90E09C01220F331F220F78
:10088000331F8C819D81FC01E20FF31F80810E9448
:1008900009058B838A81882F90E09C01220F331FEA
:1008A000220F331F8C819D81FC01E20FF31F808199
:1008B000882F90E081709070009799F519821CC084
:1008C0008A81882F90E09C01220F331F220F331F53
:1008D0008C819D81FC01E20FF31F2281338189818C
:1008E000882F90E0F901E80FF91F80810E94E5044C
:1008F0008B8389818F5F89838A81882F90E09C0117
:10090000220F331F220F331F8C819D81FC01E20FC8
:10091000F31F918189818917B0F58B818F3F81F217
:1009200032C08A81882F90E09C01220F331F220F52
:10093000331F8C819D81FC01E20FF31F8181815067
:1009400089831BC08A81882F90E09C01220F331F6E
:10095000220F331F8C819D81FC01E20FF31F8281E6
:1009600093819C01019693838283C90169810E94CE
:1009700032058B8389818150898389818F3F19F06A
:100980008B818F3FF9F28A818F5F8A838A81882FDA
:1009900090E09C01220F331F220F331F8C819D8119
:1009A000FC01E20FF31F80818C3321F08B818F3F9C
:1009B00009F459CF0E941B048B810F900F900F9068
:1009C0000F900F90CF91DF910895DF93CF9300D0D8
:1009D000CDB7DEB789830E94EE03EBEBF0E08981AF
:1009E0008083ECEBF0E084E880830E94EE03E9EB87
:1009F000F0E08081883229F0E9EBF0E080818A83A1
:100A000002C08FEF8A838A810F900F90CF91DF9180
:100A10000895DF93CF9300D0CDB7DEB789830E94CE
:100A2000EE03EBEBF0E089818083ECEBF0E084E80F
:100A300080830E94EE03E9EBF0E08081883151F081
:100A4000E9EBF0E08081803429F0E9EBF0E080818F
:100A50008A8302C08FEF8A838A810F900F90CF9193
:100A6000DF910895DF93CF9300D000D0CDB7DEB7EC
:100A70009A8389836B830E94EE038B81882329F0FC
:100A8000ECEBF0E084EC808304C0ECEBF0E084E875
:100A900080830E94EE03EBEBF0E08081E981FA8134
:100AA0008083E9EBF0E08081883519F48B8188231D
:100AB00029F0E9EBF0E08081803519F48FEF8C8329
:100AC00004C0E9EBF0E080818C838C810F900F9063
:100AD0000F900F90CF91DF910895DF93CF93CDB713
:100AE000DEB766970FB6F894DEBF0FBECDBF8B8B17
:100AF0006C8BCE0104969A8389838C898E838FEFC9
:100B00008B838B898F8381E08887CE0106969A87B5
:100B100089878B898F5F8B8782E08C8789819A8117
:100B20009E878D878CE38F87CE0107960E942604CF
:100B30008B838B818F3F29F080E890E09E8B8D8B9B
:100B40000CC08C81882F90E0382F22278D81882F30
:100B500090E0822B932B9E8B8D8B8D899E89669640
:100B60000FB6F894DEBF0FBECDBFCF91DF910895D1
:100B7000DF93CF93CDB7DEB761970FB6F894DEBFA2
:100B80000FBECDBF8F87688B8FEF89838F858B8357
:100B900081E08C83CE0102969E838D83ED81FE8160
:100BA000888980838F858F5F8F8381E08887CE01DE
:100BB00002969A8789878CE38B87CE0103960E94E1
:100BC0002604898389818F3F19F080E8898B02C0D0
:100BD0008A81898B898961960FB6F894DEBF0FBE32
:100BE000CDBFCF91DF910895DF93CF93CDB7DEB71F
:100BF00066970FB6F894DEBF0FBECDBF8A8B6B8BA6
:100C00004C8B3E8B2D8B8B898B83ED89FE8980816C
:100C10008D838D899E8901969E8B8D8BED89FE89B2
:100C200080818C838A898E838C898F5F8F83CE01AC
:100C30000396998788878CE38A871A8219820FC066
:100C4000CE0106960E9426048A838A818F3F51F046
:100C500085E090E00E946B0089818F5F89838981A4
:100C60008A3070F38A8166960FB6F894DEBF0FBEA5
:100C7000CDBFCF91DF910895DF93CF93CDB7DEB78E
:100C80000E94DA03CF91DF910895DF93CF93CDB720
:100C9000DEB72E970FB6F894DEBF0FBECDBF8A87A2
:100CA0007C876B874D878FEF89838A858F5F8A83E7
:100CB00084E08B838B859C859D838C838CE38E83E2
:100CC000CE0102960E942604898389818F3F19F004
:100CD00080E88E8701C01E868E852E960FB6F8940A
:100CE000DEBF0FBECDBFCF91DF910895DF93CF93CD
:100CF00000D0CDB7DEB79A838983E5ECF0E0898137
:100D00009A81892F99278083E4ECF0E089818083A0
:100D1000E1ECF0E088E18083E2ECF0E08EE08083BB
:100D20000F900F90CF91DF910895DF93CF9300D074
:100D3000CDB7DEB79A838983E0ECF0E08081882F1D
:100D400090E0807290700097B9F3E6ECF0E0A98132
:100D5000BA818C9180830F900F90CF91DF9108958D
:100D6000DF93CF9300D000D000D0CDB7DEB79B8308
:100D70008A837D836C834E83198213C0EA81FB8151
:100D80008081EC81FD8180838C819D8101969D8392
:100D90008C838A819B8101969B838A8389818F5F63
:100DA000898399818E81981748F326960FB6F89417
:100DB000DEBF0FBECDBFCF91DF910895DF93CF93FC
:100DC000CDB7DEB7A2E2B0E0E2E2F0E0808180647D
:100DD0008C9300C0A2E2B0E0E2E2F0E080818F7B81
:100DE0008C93CF91DF910895DF93CF9300D00F9232
:100DF000CDB7DEB78A836B838B81882341F0A2E273
:100E0000B0E0E2E2F0E0808180618C9307C0A2E272
:100E1000B0E0E2E2F0E080818F7E8C93A2E2B0E06D
:100E2000E2E2F0E080818F7D8C93A1E2B0E0E1E22C
:100E3000F0E080818F608C93E2E2F0E08081807F3F
:100E40008983E2E2F0E08A81982F92959F708981F0
:100E5000892B80830E94DE06E2E2F0E08A81982FEF
:100E60009F708981892B80830E94DE06E2E2F0E098
:100E700089818F6080830F900F900F90CF91DF91C9
:100E80000895DF93CF9300D0CDB7DEB78A838A81F0
:100E9000882341F0A2E2B0E0E2E2F0E080818061EC
:100EA0008C9307C0A2E2B0E0E2E2F0E080818F7EA6
:100EB0008C93A2E2B0E0E2E2F0E0808180628C9369
:100EC000A1E2B0E0E1E2F0E08081807F8C93A2E2D9
:100ED000B0E0E2E2F0E0808180648C9300C0E0E268
:100EE000F0E080818295807F8983A2E2B0E0E2E237
:100EF000F0E080818F7B8C9300C0A2E2B0E0E2E260
:100F0000F0E0808180648C9300C0E0E2F0E08081BA
:100F1000982F9F708981892B8983A2E2B0E0E2E259
:100F2000F0E080818F7B8C9389810F900F90CF911F
:100F3000DF910895DF93CF93CDB7DEB780E00E94B5
:100F400041078823DCF384E090E00E94AD0780E055
:100F50000E944107CF91DF910895DF93CF9300D096
:100F6000CDB7DEB79A83898389819A81009711F47E
:100F700000C006C089819A810197F1F79A8389831D
:100F80000F900F90CF91DF910895DF93CF930F9241
:100F9000CDB7DEB789830E949A07898160E00E94FD
:100FA000F4060F90CF91DF910895DF93CF930F92C6
:100FB000CDB7DEB789830E949A07898161E00E94DC
:100FC000F4060F90CF91DF910895DF93CF9300D077
:100FD000CDB7DEB789836A838A81882329F4898122
:100FE00080580E94C50704C0898180540E94C507AB
:100FF0000F900F90CF91DF910895DF93CF93CDB7EE
:10100000DEB70E949A07882F90E0CF91DF91089574
:10101000DF93CF93CDB7DEB781E00E94C507CF91B4
:10102000DF910895DF93CF93CDB7DEB782E00E94C2
:10103000C507CF91DF910895DF93CF9300D0CDB74F
:10104000DEB78A830E949A0789838A818A3021F4D5
:1010500089810E94350804C08A8161E00E94F406FB
:101060000F900F90CF91DF910895DF93CF9300D031
:10107000CDB7DEB789838981803418F480E48A8310
:1010800001C01A828A8180580E94C5070F900F9074
:10109000CF91DF910895DF93CF9300D000D0CDB7EB
:1010A000DEB79A83898303C08B810E941C08E98183
:1010B000FA8180818B838B818C838C81882311F0D2
:1010C00081E08C838C8129813A812F5F3F4F3A8365
:1010D0002983882349F70F900F900F900F90CF919D
:1010E000DF910895DF93CF9300D000D000D0CDB72B
:1010F000DEB79D838C8303C08E810E941C088C8187
:101100009D819B838A838C819D8101969D838C83A5
:10111000EA81FB818491898389818E838E818823F2
:1011200059F726960FB6F894DEBF0FBECDBFCF910C
:10113000DF910895DF93CF930F92CDB7DEB7898308
:10114000A1E2B0E0E1E2F0E080818F678C9380E083
:101150009DE70E94AD07A2E2B0E0E2E2F0E080810C
:1011600082608C93A2E2B0E0E2E2F0E080818160F4
:101170008C930E94DE0680E097E20E94AD070E94F9
:10118000DE0680E890E00E94AD070E94DE0680E85F
:1011900090E00E94AD07A2E2B0E0E2E2F0E08081E0
:1011A0008E7F8C930E94DE0680E890E00E94AD075F
:1011B00088E20E94C50788E00E94C5070E940808CF
:1011C00086E00E94C50789810E94C5070F90CF91D4
:1011D000DF910895DF93CF9300D000D0CDB7DEB775
:1011E00089836A8389818133A1F48BE392E00E9431
:1011F000AB1280E061E00E94E50783E592E00E9487
:101200004B0887E192E00E94711184E692E00E940F
:10121000AB128981823351F480E061E00E94E507DE
:101220008CE692E00E944B080E94D21089818333A1
:1012300059F480E061E00E94E5078DE792E00E94AA
:101240004B0889810E94460D8981843371F48EE8B0
:1012500092E00E94AB1280E061E00E94E5078AE91B
:1012600092E00E944B080E941A118981853371F423
:1012700080E061E00E94E5078BEA92E00E944B0863
:1012800081E00E942D0A9C838B83C6C089818633AE
:1012900071F480E061E00E94E5078CEB92E00E942F
:1012A0004B0880E00E942D0A9C838B83B5C0898106
:1012B0008733A1F48DEC92E00E94AB1280E061E0F4
:1012C0000E94E5078CED92E00E944B0887E192E0D6
:1012D0000E94B51184E692E00E94AB1289818833A6
:1012E000B9F58A81282F30E000D000D0EDB7FEB7E5
:1012F000319681EF92E091838083338322830E9431
:101300008F120F900F900F900F908A81803118F4F8
:101310008A818F5F8A838A810E947F0B8A81282F2E
:1013200030E000D000D0EDB7FEB7319687E093E013
:1013300091838083338322830E948F120F900F90BA
:101340000F900F908A81282F30E03C832B8364C05C
:1013500089818933B9F58A81282F30E000D000D007
:10136000EDB7FEB731968CE193E0918380833383B0
:1013700022830E948F120F900F900F900F908A81FE
:10138000882319F08A8181508A838A810E947F0B89
:101390008A81282F30E000D000D0EDB7FEB731961B
:1013A00087E093E091838083338322830E948F12AE
:1013B0000F900F900F900F908A81282F30E03C8380
:1013C0002B832AC089818D3689F484E393E00E94BF
:1013D000AB12A5E2B0E0E5E2F0E080818D7F8C9376
:1013E0008A81282F30E03C832B8316C08981853782
:1013F00089F48CE393E00E94AB12A5E2B0E0E5E251
:10140000F0E0808182608C938A81282F30E03C83D9
:101410002B8302C01C821B828B819C810F900F90BA
:101420000F900F90CF91DF910895DF93CF930F929C
:10143000CDB7DEB7898327E132E08981882F90E03C
:10144000880F991F280F391F80E2698142E00E94AE
:10145000F4050F90CF91DF910895DF93CF93CDB72F
:10146000DEB769970FB6F894DEBF0FBECDBF8F8B86
:1014700086E493E00E94AB1287E19BE590931A0209
:101480008093190281E00E94150A8F89813039F416
:1014900080E390EA90931E0280931D0206C080E3D1
:1014A00090E290931E0280931D0283E00E94150A31
:1014B00083E10E946311880F892F881F990B9195F2
:1014C0009E838D838D819E81009739F08D819E81D1
:1014D00090931C0280931B0206C089EB94EF9093BB
:1014E0001C0280931B0282E00E94150A8F898130C2
:1014F00039F480E190EE90931E0280931D0206C0A5
:1015000080E190E690931E0280931D0283E00E948A
:10151000150A84E690E09C838B8304C082E090E00F
:101520000E946B0083E10E946311807290700097AB
:1015300079F4198E8B819C81009711F081E0898F5D
:101540008B819C8101979C838B83998D992331F7A3
:1015500083E10E946311880F892F881F990B919551
:101560009E838D83188E8B819C81009711F481E07E
:10157000888F8B819C8101979C838B83988D992385
:1015800069F000D0EDB7FEB7319682E593E0918324
:1015900080830E948F120F900F90A6C000D000D0C1
:1015A000EDB7FEB7319680E693E0918380838D811D
:1015B0009E81938382830E948F120F900F900F90D1
:1015C0000F908D819E818E549D4F2AE030E0B901AD
:1015D0000E948115CB019A83898389819A819C011C
:1015E000220F331FC901880F991F880F991F280FD9
:1015F000391F8D819E81821B930B9C012E543D4F80
:1016000000D000D000D0EDB7FEB731968FE693E062
:101610009183808389819A81938382833583248314
:101620000E948F128DB79EB706960FB6F8949EBF94
:101630000FBE8DBF8D819E8190931C0280931B02F3
:1016400082E00E94150A8D819E81926090931C0217
:1016500080931B0282E00E94150A85E19BE590932E
:101660001A028093190281E00E94150A80E060E06E
:101670000E94E50789819A819C01220F331FC901CD
:10168000880F991F880F991F280F391F8D819E8100
:10169000821B930B9C012E543D4F8DB79EB708972C
:1016A0000FB6F8949EBF0FBE8DBFEDB7FEB7319653
:1016B000CE010796918380838DE893E093838283A4
:1016C00089819A8195838483378326830E94E012DF
:1016D0008DB79EB708960FB6F8949EBF0FBE8DBF0C
:1016E000CE0107960E944B088D819E8169960FB6A8
:1016F000F894DEBF0FBECDBFCF91DF910895DF9389
:10170000CF93CDB7DEB765970FB6F894DEBF0FBEA7
:10171000CDBF8B8B8B89282F30E000D000D0EDB768
:10172000FEB731968EE993E09183808333832283E1
:101730000E948F120F900F900F900F908B89282F7F
:1017400030E03D8B2C8B8C899D898830910509F484
:1017500093C02C893D8929303105B4F58C899D8948
:101760008330910509F46FC02C893D8924303105FF
:1017700094F48C899D898130910509F45AC02C8993
:101780003D89223031050CF059C08C899D89009724
:1017900009F44BC09DC02C893D892530310509F4E1
:1017A0005CC08C899D89853091050CF451C02C89D1
:1017B0003D892630310509F455C08C899D898730D3
:1017C000910509F454C084C02C893D892C30310521
:1017D00009F466C08C899D898D3091056CF42C8943
:1017E0003D892A30310509F451C08C899D898B309F
:1017F00091050CF050C045C02C893D892E30310533
:1018000009F458C08C899D898E3091050CF44DC027
:101810002C893D892F30310509F451C08C899D896F
:101820008031910509F450C053C019828FE08A833A
:1018300052C08CE089838FE08A834DC08DE089831C
:101840008FE08A8348C08EE089838FE08A8343C01B
:101850008EE089838EE08A833EC08FE089838EE0AC
:101860008A8339C08EE089838DE08A8334C08FE01B
:1018700089838DE08A832FC08FE089838AE08A8301
:101880002AC08FE0898389E08A8325C08EE089831E
:1018900086E08A8320C08FE0898386E08A831BC02C
:1018A0008FE0898385E08A8316C08EE0898383E098
:1018B0008A8311C08FE0898382E08A830CC08FE025
:1018C000898381E08A8307C08FE089831A8203C0FD
:1018D00019828FE08A8380911D0290911E02807090
:1018E000987F90931E0280931D0220911D023091DB
:1018F0001E028A81882F90E09695982F88279795C9
:101900008795822B932B90931E0280931D0283E078
:101910000E94150A10923402109233022091330271
:10192000309134028981882F90E0982F88279295F2
:10193000907F822B932B90933402809333028EE01E
:101940000E94150A65960FB6F894DEBF0FBECDBF94
:10195000CF91DF910895DF93CF93CDB7DEB700D05D
:10196000EDB7FEB7319684EB93E0918380830E94BC
:101970008F120F900F9085ED93E00E94AB1200D074
:10198000EDB7FEB7319684EF93E0918380830E9498
:101990008F120F900F9000D0EDB7FEB731968FE009
:1019A00094E0918380830E948F120F900F9000D05B
:1019B000EDB7FEB7319685E294E0918380830E9473
:1019C0008F120F900F9000D0EDB7FEB7319689E3DC
:1019D00094E0918380830E948F120F900F9000D02B
:1019E000EDB7FEB7319687E594E0918380830E943E
:1019F0008F120F900F9000D0EDB7FEB7319683E6AF
:101A000094E0918380830E948F120F900F9000D0FA
:101A1000EDB7FEB7319681E794E0918380830E9411
:101A20008F120F900F9000D0EDB7FEB731968DE872
:101A300094E0918380830E948F120F900F9000D0CA
:101A4000EDB7FEB731968BE994E0918380830E94D5
:101A50008F120F900F9000D0EDB7FEB731968BEA42
:101A600094E0918380830E948F120F900F9000D09A
:101A7000EDB7FEB7319684EB94E0918380830E94AA
:101A80008F120F900F90CF91DF910895DF93CF9336
:101A9000CDB7DEB769970FB6F894DEBF0FBECDBFE6
:101AA000898300D0EDB7FEB731968FEB94E0918338
:101AB00080830E948F120F900F90E0ECF0E0808105
:101AC0008823DCF7E6ECF0E080818093BD0580910F
:101AD000BD05882F90E00E94A412E0ECF0E0808128
:101AE0008823DCF7E6ECF0E080818093BC058091F0
:101AF000BC05282F30E000D000D0EDB7FEB73196FE
:101B000085EE94E091838083338322830E948F1239
:101B10000F900F900F900F908091BD05198E8A3312
:101B200010F481E0898F8091BD05188E803310F00C
:101B300091E0988F898D988D8923882339F0809141
:101B4000BD0580538295807F8093BE058091BD0541
:101B50001F8A873610F481E08F8B8091BD051E8A25
:101B6000813610F091E09E8B8F899E89892388238E
:101B700061F08091BD050E9465128093BD05809142
:101B8000BD058295807F8093BE058091BC051D8A2E
:101B90008A3310F481E08D8B8091BC051C8A8033E0
:101BA00010F091E09C8B8D899C898923882349F0D2
:101BB0008091BC058053982F8091BE05892B80931E
:101BC000BE058091BC051B8A873610F481E08B8BA3
:101BD0008091BC051A8A813610F091E09A8B8B892E
:101BE0009A898923882369F08091BC050E94651237
:101BF0008093BC059091BC058091BE05892B809394
:101C0000BE058091BE05282F30E000D000D0EDB792
:101C1000FEB7319689EE94E09183808333832283EB
:101C20000E948F120F900F900F900F9000D0EDB781
:101C3000FEB731968EEF94E0918380830E948F12DD
:101C40000F900F90E0ECF0E080818823DCF7E6EC69
:101C5000F0E08081882F90E09093B5058093B405E3
:101C60008091B4059091B5050E94A412E0ECF0E0DB
:101C700080818823DCF7E6ECF0E08081882F90E01B
:101C80009093B7058093B6058091B6059091B705FE
:101C90000E94A412E0ECF0E080818823DCF7E6ECFF
:101CA000F0E08081882F90E09093B9058093B8058B
:101CB0008091B8059091B9050E94A412E0ECF0E083
:101CC00080818823DCF7E6ECF0E08081882F90E0CB
:101CD0009093BB058093BA052091BA053091BB055E
:101CE00000D000D0EDB7FEB7319685EE94E0918339
:101CF0008083338322830E948F120F900F900F9066
:101D00000F908091B4059091B505198A8A33910599
:101D100010F481E0898B8091B4059091B505188A03
:101D20008033910510F091E0988B898998898923F7
:101D3000882311F18091B4059091B505C097982F33
:101D400088279295907F9093B3058093B205209158
:101D5000B2053091B30500D000D0EDB7FEB7319693
:101D600082E295E091838083338322830E948F12E5
:101D70000F900F900F900F908091B4059091B50542
:101D80001F868736910510F481E08F878091B40516
:101D90009091B5051E868136910510F091E09E87E1
:101DA0008F859E858923882369F18091B405909160
:101DB000B5050E946512882F90E09093B505809339
:101DC000B4058091B4059091B505982F8827929518
:101DD000907F9093B3058093B2052091B205309126
:101DE000B30500D000D0EDB7FEB7319682E295E0A2
:101DF00091838083338322830E948F120F900F90F0
:101E00000F900F908091B6059091B7051D868A338B
:101E1000910510F481E08D878091B6059091B7050A
:101E20001C868033910510F091E09C878D859C8500
:101E30008923882331F18091B6059091B705C09729
:101E4000382F22278091B2059091B305822B932BD6
:101E50009093B3058093B2052091B2053091B305FC
:101E600000D000D0EDB7FEB7319682E295E09183C5
:101E70008083338322830E948F120F900F900F90E4
:101E80000F908091B6059091B7051B868736910516
:101E900010F481E08B878091B6059091B7051A8682
:101EA0008136910510F091E09A878B859A85892378
:101EB000882389F18091B6059091B7050E9465123B
:101EC000882F90E09093B7058093B6058091B60572
:101ED0009091B705382F22278091B2059091B305D4
:101EE000822B932B9093B3058093B2052091B2057A
:101EF0003091B30500D000D0EDB7FEB7319682E245
:101F000095E091838083338322830E948F120F9008
:101F10000F900F900F908091B8059091B905198698
:101F20008A33910510F481E089878091B8059091FA
:101F3000B90518868033910510F091E0988789855E
:101F400098858923882359F18091B8059091B90526
:101F5000C0979C0122953295307F3227207F32270F
:101F60008091B2059091B305822B932B9093B3058A
:101F70008093B2052091B2053091B30500D000D016
:101F8000EDB7FEB7319682E295E09183808333838B
:101F900022830E948F120F900F900F900F908091CC
:101FA000B8059091B9051F828736910510F481E03C
:101FB0008F838091B8059091B9051E828136910575
:101FC00010F091E09E838F819E8189238823B1F157
:101FD0008091B8059091B9050E946512882F90E014
:101FE0009093B9058093B8058091B8059091B90593
:101FF0009C0122953295307F3227207F32278091B5
:10200000B2059091B305822B932B9093B3058093E7
:10201000B2052091B2053091B30500D000D0EDB7E4
:10202000FEB7319682E295E09183808333832283E9
:102030000E948F120F900F900F900F908091BA0511
:102040009091BB051D828A33910510F481E08D8348
:102050008091BA059091BB051C828033910510F0E8
:1020600091E09C838D819C818923882331F180912B
:10207000BA059091BB059C01205330408091B20578
:102080009091B305822B932B9093B3058093B20567
:102090002091B2053091B30500D000D0EDB7FEB766
:1020A000319682E295E091838083338322830E947C
:1020B0008F120F900F900F900F908091BA05909112
:1020C000BB051B828736910510F481E08B838091DC
:1020D000BA059091BB051A828136910510F091E006
:1020E0009A838B819A818923882379F18091BA051B
:1020F0009091BB050E946512882F90E09093BB05DC
:102100008093BA052091BA053091BB058091B20544
:102110009091B305822B932B9093B3058093B205D6
:102120002091B2053091B30500D000D0EDB7FEB7D5
:10213000319682E295E091838083338322830E94EB
:102140008F120F900F900F900F902091B205309149
:10215000B30500D000D0EDB7FEB7319686E295E02A
:1021600091838083338322830E948F120F900F907C
:102170000F900F908091BE05882F90E02091B205BE
:102180003091B305880F991FFC01E95EFD4F318343
:10219000208369960FB6F894DEBF0FBECDBFCF91F6
:1021A000DF910895DF93CF9300D0CDB7DEB78AE0FB
:1021B00090E00E94A4121A82198232C000D000D08E
:1021C000EDB7FEB7319689E395E0918380838981ED
:1021D0009A81938382830E948F120F900F900F90A9
:1021E0000F9089819A81880F991FFC01E95EFD4F4C
:1021F0002081318100D000D0EDB7FEB731968CE45C
:1022000095E091838083338322830E948F120F9005
:102210000F900F900F9089819A8101969A838983FC
:1022200089819A81823191054CF20F900F90CF9164
:10223000DF910895DF93CF9300D000D0CDB7DEB704
:102240001A82198230C089810E9463119C838B831A
:1022500000D000D0EDB7FEB731968DE595E09183C3
:10226000808389819A81938382830E948F120F9049
:102270000F900F900F9000D000D0EDB7FEB73196C1
:1022800080E695E0918380838B819C819383828318
:102290000E948F120F900F900F900F9089819A815A
:1022A00001969A83898389819A818D3191055CF2A7
:1022B0008AE090E00E942A120F900F900F900F90EA
:1022C000CF91DF910895DF93CF930F92CDB7DEB713
:1022D000898380E269810E946D050F90CF91DF9123
:1022E0000895DF93CF9300D000D0CDB7DEB79C83A5
:1022F0008B8300D0EDB7FEB7319682E795E09183EE
:1023000080830E948F120F900F9081E090E09A835B
:10231000898313C049812B813C8189819A81880FEF
:10232000991F280F391F80E2642F42E00E94F405B4
:1023300089819A8101969A83898389819A818231E0
:10234000910544F300D0EDB7FEB731968BE895E0E8
:10235000918380830E948F120F900F900F900F90A7
:102360000F900F90CF91DF910895DF93CF9300D01E
:1023700000D0CDB7DEB79C838B8300D0EDB7FEB71E
:10238000319682E995E0918380830E948F120F90AD
:102390000F9081E090E09A83898313C049812B815B
:1023A0003C8189819A81880F991F280F391F80E20B
:1023B000642F42E00E94F40589819A8101969A83F4
:1023C000898389819A818231910544F32B813C81F3
:1023D00080E260E042E00E94F4050F900F900F90C1
:1023E0000F90CF91DF910895DF93CF9300D00F929C
:1023F000CDB7DEB789837B836A8389818A3031F4E4
:102400002A813B818DE0B9010E94F411E0ECF0E0FB
:102410008081882F90E0807290700097B9F3E6EC8D
:10242000F0E08981808380E090E00F900F900F9022
:10243000CF91DF910895DF93CF93CDB7DEB7E0EC76
:10244000F0E080818823DCF7E6ECF0E08081CF913A
:10245000DF910895DF93CF9300D0CDB7DEB79A8395
:10246000898316C0E5E3F0E081E08083E6E4F0E0F4
:102470001082E5E3F0E08081882F90E08170907019
:102480000097B9F389819A81805091409A8389831A
:1024900089819A8121E08130920720F7E5E3F0E01D
:1024A00081E08083E6E4F0E0898181958083E5E343
:1024B000F0E08081882F90E0817090700097B9F3F0
:1024C0000F900F90CF91DF910895DF93CF9300D0BD
:1024D000CDB7DEB78A838A81813611F48AE0898399
:1024E0008A81823611F48BE089838A81833611F4E4
:1024F0008CE089838A81843611F48DE089838A8116
:10250000853611F48EE089838A81863611F48FE056
:10251000898389810F900F90CF91DF910895A0E07A
:10252000B0E0E5E9F2E10C94A515FE013596619164
:1025300071918091C1059091C205AF010E94041371
:102540002096E2E00C94C1156091C1057091C2051E
:102550000E94F71408950F931F93CF93DF938C017C
:10256000E091C105F091C205838181FF21C0C0E0E7
:10257000D0E00DC0E091C105F091C2052085318504
:10258000BF01F9010995892B11F0CFEFDFEFF801B9
:1025900081918F01882371F7E091C105F091C20507
:1025A000208531858AE0BF01F9010995892B11F059
:1025B000CFEFDFEFCE01DF91CF911F910F91089503
:1025C000AEE0B0E0E6EEF2E10C94A3150D891E89B1
:1025D00086E08C831A8309838FEF9FE79E838D8328
:1025E0009E01275E3F4FCE0101966F89788DA9012C
:1025F0000E9404132F813885020F131FF8011082E7
:102600002E96E4E00C94BF15ABE0B0E0EAE0F3E115
:102610000C9495153C012B015A01FC01178216827E
:10262000838181FD03C06FEF7FEFC6C19AE0892EE1
:102630001E010894211C311CF3012381F20123FDAA
:10264000859123FF81912F01882309F4B2C185323E
:1026500039F423FD859123FF81912F01853229F4DF
:1026600090E0B3010E94F714E7CF982FFF24EE24E7
:102670009924FFE1FF15D0F09B3269F09C3228F4D9
:10268000903259F0933291F40EC09D3249F090335C
:1026900069F441E024C052E0F52A84E0F82A28C019
:1026A00098E0F92A25C0E0E1FE2A22C0F7FC29C003
:1026B000892F80538A3070F4F6FE05C0989C902CC8
:1026C0001124980E15C0E89CE02C1124E80EF0E2CD
:1026D000FF2A0EC09E3229F4F6FC6BC140E4F42AB6
:1026E00007C09C3619F450E8F52A02C0983649F420
:1026F000F20123FD959123FF91912F01992309F078
:10270000B8CF892F8554833018F08052833038F445
:1027100044E050E0A40EB51E5FE359830FC093362A
:1027200031F0933779F0933509F056C020C0F501A8
:102730008081898342E050E0A40EB51E610101E072
:1027400010E012C0F501C080D180F6FC03C06FEF2D
:102750007FEF02C0692D70E042E050E0A40EB51E8C
:10276000C6010E94EC148C015FE7F52214C0F5014C
:10277000C080D180F6FC03C06FEF7FEF02C0692DEF
:1027800070E042E050E0A40EB51EC6010E94E114C4
:102790008C0150E8F52AF3FE07C01AC080E290E0F1
:1027A000B3010E94F714EA948E2D90E008171907E0
:1027B000A8F30EC0F601F7FC8591F7FE81916F0139
:1027C00090E0B3010E94F714E110EA940150104028
:1027D0000115110579F7EAC0943611F0993669F5BB
:1027E000F7FE08C0F501208131814281538184E0E8
:1027F00090E00AC0F501808191819C01442737FD5A
:102800004095542F82E090E0A80EB91E9FE6F92271
:1028100057FF09C050954095309521953F4F4F4F38
:102820005F4FE0E8FE2ACA01B901A1012AE030E0C9
:102830000E942315D82ED21840C0953729F41F2D99
:102840001F7E2AE030E01DC01F2D197F9F3661F0EA
:10285000903720F4983509F0ACC00FC0903739F0AC
:10286000983709F0A6C004C028E030E00AC0106123
:1028700014FD146020E130E004C014FD166020E176
:1028800032E017FF08C0F501608171818281938178
:1028900044E050E008C0F50180819181BC0180E0F6
:1028A00090E042E050E0A40EB51EA1010E94231565
:1028B000D82ED2188FE7F82EF122F6FE0BC05EEF6D
:1028C000F522D91438F4F4FE07C0F2FC05C08FEEEF
:1028D000F82202C01D2D01C0192DF4FE0DC0FE010D
:1028E000ED0DF11D8081803319F499EEF92208C0B5
:1028F0001F5FF2FE05C003C08F2D867809F01F5FB1
:102900000F2DF3FC14C0F0FE0FC01E1510F09D2C0F
:102910000BC09D2C9E0C911A1E2D06C080E290E0EB
:10292000B3010E94F7141F5F1E15C0F304C01E15EB
:1029300010F4E11A01C0EE2404FF0FC080E390E020
:10294000B3010E94F71402FF1DC001FD03C088E718
:1029500090E00EC088E590E00BC0802F867891F063
:1029600001FF02C08BE201C080E2F7FC8DE290E043
:10297000B3010E94F71406C080E390E0B3010E9407
:10298000F7149A94D914C0F3DA94F101ED0DF11D06
:10299000808190E0B3010E94F714DD20A9F706C002
:1029A00080E290E0B3010E94F714EA94EE20C1F7B0
:1029B00043CEF30166817781CB012B96E2E10C9443
:1029C000B115FC010590615070400110D8F7809559
:1029D00090958E0F9F1F0895FC01615070400190EB
:1029E0000110D8F7809590958E0F9F1F08950F9333
:1029F0001F93CF93DF938C01EB018B8181FF1BC071
:102A000082FF0DC02E813F818C819D81281739075F
:102A100064F4E881F9810193F983E88306C0E885CD
:102A2000F985802F0995892B31F48E819F8101963C
:102A30009F838E8302C00FEF1FEFC801DF91CF91FC
:102A40001F910F910895FA01AA27283051F12031E2
:102A500081F1E8946F936E7F6E5F7F4F8F4F9F4F32
:102A6000AF4FB1E03ED0B4E03CD0670F781F891F74
:102A70009A1FA11D680F791F8A1F911DA11D6A0F42
:102A8000711D811D911DA11D20D009F468943F91F5
:102A90002AE0269F11243019305D3193DEF6CF01F4
:102AA0000895462F4770405D4193B3E00FD0C9F7BA
:102AB000F6CF462F4F70405D4A3318F0495D31FD27
:102AC0004052419302D0A9F7EACFB4E0A69597957A
:102AD000879577956795BA95C9F700976105710550
:102AE00008959B01AC010A2E06945795479537959A
:102AF0002795BA95C9F7620F731F841F951FA01DF4
:102B00000895AA1BBB1B51E107C0AA1FBB1FA61734
:102B1000B70710F0A61BB70B881F991F5A95A9F786
:102B200080959095BC01CD0108952F923F924F92D0
:102B30005F926F927F928F929F92AF92BF92CF924D
:102B4000DF92EF92FF920F931F93CF93DF93CDB756
:102B5000DEB7CA1BDB0B0FB6F894DEBF0FBECDBFCE
:102B600009942A88398848885F846E847D848C849F
:102B70009B84AA84B984C884DF80EE80FD800C81A8
:102B80001B81AA81B981CE0FD11D0FB6F894DEBF8B
:0C2B90000FBECDBFED010895F894FFCFFB
:102B9C000000000200000000F411000000002046BC
:102BAC004D20526164696F2054756E6572200A0065
:102BBC00204A6F616B696D204C696E64E96E202050
:102BCC00000A6D656E75203D2025690054756E6593
:102BDC00643A2025642E2564204D487A20000A0A88
:102BEC002054756E65206D656E752073656C65631C
:102BFC0074656400566F6C756D6520202020202054
:102C0C00202020200A2020202020202020202020CE
:102C1C002020202020003E000A0A20566F6C756D83
:102C2C0065206D656E752073656C656374656400F5
:102C3C005361766520202020202020202020202079
:102C4C000A2020202020202020202020202020208E
:102C5C0020000A0A2053617665206D656E7520731D
:102C6C00656C65637465640054756E65643A202503
:102C7C00642E2564204D487A000A5620646F776EC6
:102C8C00206672202569000A562075702066722015
:102C9C002569000A5361766520646F776E000A53CC
:102CAC0061766520757000FFFF155BB9F41280002A
:102CBC0004AA280044E71E41717D00CE82554F0CBA
:102CCC009745B82DFC9780A1046ADF0A0A09536561
:102CDC006E64696E672041727261792056616C7501
:102CEC00657300312053656E64696E672076616C84
:102CFC00756573000A0909446F6E650032205072C5
:102D0C00696E74696E672061727261790033205349
:102D1C006574206172726179206F707420000A0AE8
:102D2C00095265616420416C6C0034205265616409
:102D3C0020616C6C202020202020003520536565FC
:102D4C006B20557020202020202020003620536539
:102D5C00656B20446F776E2020202020000A0A0922
:102D6C0043616C6962726174696E670037204361FC
:102D7C006C6962726174696E6720202020202020AB
:102D8C00000A0A09566F6C756D65207570206672A5
:102D9C006F6D2025690A000A0A09566F6C756D65FE
:102DAC002073657420746F2025690A000A0A09567D
:102DBC006F6C756D6520646F776E2066726F6D2019
:102DCC0025690A000A0A094D757465000A0A095535
:102DDC006E6D757465000A09205365656B696E67C5
:102DEC0020000A5365656B206661696C656421007F
:102DFC000A526561646368616E203D202564000A97
:102E0C0054756E656420746F206672657175656E9D
:102E1C0063792025642E2564204D487A0054756E04
:102E2C0065643A2025642E2564204D487A000A09F1
:102E3C0020766F6C756D652073657420746F20251A
:102E4C0069200A000A0A0A2D2D2D2D2D2D2D2D2D30
:102E5C002D464D2054756E65722D2D2D2D2D2D2D3D
:102E6C002D2D2D2D000A2D2D2D2D2D2D436F6E6604
:102E7C00696775726174696F6E204D656E752D2D65
:102E8C002D2D2D000A31292053656E64206172723C
:102E9C0061792076616C75657320312D3137000AAC
:102EAC0032292052656164206172726179207661E9
:102EBC006C756573000A3329205365742061727236
:102ECC0061792076616C7565000A0A342920526597
:102EDC00616420416C6C2052656769737465722063
:102EEC0076616C756573000A3529205365656B2016
:102EFC005570000A3629205365656B20446F776E38
:102F0C00000A37292053656E642043616C69627234
:102F1C006174696F6E2056616C756573000A38298F
:102F2C0020566F6C756D65205570000A3929205636
:102F3C006F6C756D6520446F776E000A6D29206D7E
:102F4C00757465000A752920756E6D757465000AB7
:102F5C000A4172726179204164647265737320282E
:102F6C0032206469676974206865782076616C75B5
:102F7C0065293A200025630A00417272617920416B
:102F8C006464726573732069733A202578000A0AA9
:102F9C0041727261792076616C75652028342064E9
:102FAC0069676974206865782076616C7565293A63
:102FBC00200025780A0041727261792076616C7567
:102FCC00652069733A202578000A41727261792074
:102FDC00706F736974696F6E202578000941727285
:102FEC0061792076616C75653A202578002578002A
:102FFC000972656776616C75652069733A2025786E
:10300C000A000A53656E64696E67207265677320E7
:10301C003120746F2031372E2E2E0020446F6E65B8
:10302C0021000A53656E64696E672063616C696286
:0E303C00726174696F6E20646174612E000011
:00000001FF
